:020000040800F2
:10000000701100204D0A0008613D0008390A0008FF
:10001000390A0008390A0008390A0008390A0008B4
:100020000000000000000000000000008D0A000831
:10003000390A000800000000310C0008551E0008B5
:10004000CD0C0008CD0C0008CD0C0008CD0C00082C
:10005000CD0C0008CD0C0008CD0C0008CD0C00081C
:10006000CD0C0008CD0C0008CD0C0008CD0C00080C
:10007000CD0C0008CD0C0008CD0C0008CD0C0008FC
:10008000CD0C0008CD0C0008CD0C0008CD0C0008EC
:10009000CD0C0008CD0C0008CD0C0008CD0C0008DC
:1000A000CD0C0008CD0C0008CD0C0008CD0C0008CC
:1000B000CD0C0008CD0C0008CD0C0008CD0C0008BC
:1000C000CD0C0008CD0C0008CD0C0008CD0C0008AC
:1000D000CD0C0008CD0C0008CD0C0008CD0C00089C
:1000E000CD0C0008CD0C0008CD0C0008CD0C00088C
:1000F000CD0C0008CD0C0008CD0C0008CD0C00087C
:10010000CD0C0008CD0C0008CD0C0008CD0C00086B
:10011000CD0C0008CD0C0008CD0C0008CD0C00085B
:10012000CD0C0008CD0C0008CD0C0008CD0C00084B
:10013000CD0C0008CD0C0008CD0C0008CD0C00083B
:10014000CD0C0008CD0C0008CD0C0008CD0C00082B
:10015000CD0C0008CD0C0008CD0C0008CD0C00081B
:10016000CD0C0008CD0C0008CD0C0008CD0C00080B
:10017000CD0C0008CD0C0008CD0C0008CD0C0008FB
:10018000CD0C0008CD0C0008CD0C0008CD0C0008EB
:10019000CD0C0008CD0C0008CD0C0008CD0C0008DB
:1001A000CD0C0008CD0C0008CD0C0008CD0C0008CB
:1001B000CD0C0008CD0C0008CD0C0008CD0C0008BB
:1001C000CD0C0008CD0C0008CD0C0008CD0C0008AB
:1001D000CD0C0008CD0C0008CD0C0008CD0C00089B
:1001E000CD0C0008CD0C0008CD0C0008CD0C00088B
:1001F000CD0C0008CD0C0008CD0C0008CD0C00087B
:0C020000CD0C0008CD0C0008CD0C00084F
:10020C00844641EA000313F0030349D1403A23D357
:10021C000B6803604B6843608B688360CB68C3607A
:10022C000B6903614B6943618B698361CB69C36162
:10023C000B6A03624B6A43628B6A8362CB6AC3624A
:10024C000B6B03634B6B43638B6B8363CB6BC36332
:10025C0040304031403ADBD230320BD30B68036074
:10026C004B6843608B688360CB68C360103010317F
:10027C00103AF3D20C3205D351F8043B40F8043B4E
:10028C00043AF9D2043208D0D2071CBF11F8013B52
:10029C0000F8013B01D30B8803806046704700BF18
:1002AC00082A13D38B07B1D010F00303AED0C3F1DF
:1002BC000403D21ADB071CBF11F8013B00F8013B09
:1002CC00A4D331F8023B20F8023B9FE7043AD9D380
:1002DC00013A11F8013B00F8013BF9D20B7803709D
:1002EC004B7843708B7883706046704708B5034930
:1002FC00034802F04FFE002008BD00BFF853000871
:10030C001454000808B5024B1B68984708BD00BF81
:10031C0000000020014B1860704700BF0000002057
:10032C0000B585B084460A466846002300930193C5
:10033C000293039302238DF80230044B0193614620
:10034C0002F0C2FE05B05DF804FB00BF110300080B
:10035C0080B505460E461746984602F0F9FA034654
:10036C0000F0BEFC0446DFF8189049F80030424615
:10037C0039463046A84754F8090000F039FC00BF54
:10038C0008000000034A536823F002035360002066
:10039C00704700BF0040024408B50B4641680C3161
:1003AC00012B14D00AD833B90F4B9B685B68C3B1CF
:1003BC000D48984707E06FF0850004E0023BDBB284
:1003CC00012B01D8002008BD6FF08500FBE7064B20
:1003DC009B681B6813B104489847F4E76FF057000B
:1003EC00F1E76FF05700EEE7284E000808B5024918
:1003FC0003F0B4FB08BD00BFA503000810B5192815
:10040C0008D8064B53F82040204604F06BFB18B17B
:10041C00204610BD0024FBE70024F9E78C5A0008A5
:10042C0008B500F08BFF044B044A1A60044AD36AE7
:10043C0043F00103D36208BD4C0000200048E801E2
:10044C0000080244014B036000207047F45A000876
:10045C0008B50348034A121A002103F06DFC08BDCD
:10046C00780000203004002008B50648064A121A0D
:10047C00064903F065FC0648064A121A064903F0C1
:10048C005FFC08BD0000002078000020385C0008EC
:10049C000000002000000020385C000810B5044665
:1004AC00836842680168094803F049FB6369226963
:1004BC00E168074803F043FBE169064803F03FFBA2
:1004CC00A169054803F03BFB10BD00BFB854000800
:1004DC00E8540008185500082855000838B504469B
:1004EC000D4611B10846FFF7D9FF012C04D029465F
:1004FC00204601F05DFE38BDEFF30581103902484E
:10050C0003F01DFBF3E700BF5855000830BFFFF7A1
:10051C00FDBF00BF38B50446054D2A460549FFF717
:10052C006FFE054A0021601902F09EFC38BD00BF29
:10053C0000000000F05300080400000070B50646EF
:10054C00064D074B1D444C1B2046FFF7E3FF083CB0
:10055C00C6F8A44005F1080070BD00BF0000000003
:10056C00040000008169104B5A6942F480725A6190
:10057C00BFF34F8FBFF36F8F31F8021C5A6922F40F
:10058C0080725A61BFF34F8FBFF36F8F01F47F43BB
:10059C00B3F55F4F01D000207047C9B2022901D0DA
:1005AC00002070470120704700ED00E04FF0000C78
:1005BC0083F800C002F07F4CBCF17F4F12D102F0E7
:1005CC000C0CBCF1080F04D012F0080F07D0084631
:1005DC00704708B5044803F0B2FA002008BD0122A8
:1005EC001A707047002070476C550008F8B5054626
:1005FC000F461446324803F0A2FA324B9B6A13F0B2
:10060C00100F31D110262F4B9B6A13F0080F30D1ED
:10061C002C4B9B6A13F0020F30D12A4B9B6A13F0C0
:10062C00010F43D1274B9B6A13F0200F43D1254B6D
:10063C009B6A13F0100F01D1224B9B6A214B9B6AD2
:10064C0013F0200F04D01F4A536A23F40053536253
:10065C001C4A936A43F0FF0393620121284603F07E
:10066C007FFB20703046F8BD174803F068FA11265E
:10067C00C9E7164803F063FA1226C9E7144803F0D9
:10068C005EFA104B596B9B6A13F0800F01D1132645
:10069C00C3E7104803F053FA37B10A4A936A23F0C0
:1006AC00800393621326B8E71326B6E70A4803F0D3
:1006BC0046FA1426B6E7094803F041FA1526B6E7C0
:1006CC009855000800ED00E0B0550008E45500080E
:1006DC00F8550008145600082C5600084C56000813
:1006EC00F8B505460F4614462F4803F028FA2F4B51
:1006FC009B6A13F4805F25D116262C4B9B6A13F44E
:10070C00006F24D1294B9B6A13F4007F24D1274B13
:10071C009B6A13F4806F37D1244B9B6A13F4807F50
:10072C0037D1224B9B6A13F4005F37D11F4A936A6F
:10073C0043F47F4393620121284603F011FB2070A0
:10074C003046F8BD1A4803F0FAF91726D5E71948D0
:10075C0003F0F5F91826D5E7174803F0F0F9134B19
:10076C00996B9B6A13F4004F01D11926CFE71348FC
:10077C0003F0E5F937B10D4A936A23F40043936211
:10078C001926C4E71926C2E70D4803F0D8F91A2632
:10079C00C2E70C4803F0D3F91B26C7E70A4803F05D
:1007AC00CEF91C26C2E700BF7C56000800ED00E025
:1007BC0094560008E4550008A8560008C4560008D2
:1007CC00DC560008F85600084C56000808B52948B5
:1007DC0003F0B5F9284B9B6A13F0007F26D11D203E
:1007EC00254B9B6A13F0807F25D1234B9B6A13F416
:1007FC00801F25D1204B9B6A13F4002F25D11E4B53
:10080C009B6A13F4802F25D11B4B9B6A13F4003F7A
:10081C0025D1194B9B6A13F4803F25D1164A936A54
:10082C006FEA03436FEA1343936208BD134803F066
:10083C0086F91E20D4E7124803F081F91F20D4E773
:10084C00104803F07CF90220D4E70F4803F077F945
:10085C002120D4E70D4803F072F92220D4E70C488C
:10086C0003F06DF92320D4E70A4803F068F924203B
:10087C00D4E700BF1457000800ED00E03057000823
:10088C0044570008605700088C570008AC57000804
:10089C00D4570008F057000870B506460D46264898
:1008AC0003F04DF900232B70244BDC6A14F0020486
:1008BC000AD1224BDB6A002B0BDB204BDC6A14F0D9
:1008CC0080440AD1204670BD1D4803F038F900243D
:1008DC00F8E71C4803F033F9F4E71B4803F02FF951
:1008EC003046FFF73FFE98B9144B9B6A13F0FF0F8D
:1008FC0014D1124B9C6A14F47F4416D10F4B9B6A93
:10090C00B3F5803FDED33046FFF760FF0446D9E7EE
:10091C0031680E4803F013F93468D3E72A460121F5
:10092C003046FFF763FE0446CCE72A4601213046E9
:10093C00FFF7D6FE0446C5E71C58000800ED00E0A2
:10094C00345800085858000868580008885800089F
:10095C0008B500230B70024803F0F1F808BD00BF86
:10096C00A858000808B50A460F2905DC0349103AB7
:10097C00034803F0E4F808BD0249F8E7D058000832
:10098C0004590008E858000830B58BB01E4B5D6860
:10099C00C5F30805002383F31188BFF36F8F0DF1A6
:1009AC002603FFF703FE04460DF12702294603F048
:1009BC00D9F99DF827300BB10BB030BD05460DF1C0
:1009CC00040C20686168A268E368ACE80F00206939
:1009DC006169A269E369ACE80F009DF826304BB160
:1009EC00089BC3F308024AB96FEA53236FEA432307
:1009FC00089303E0089B6FF30803089301A92846AA
:100A0C00FFF76CFDD8E700BF00ED00E0064B5A691C
:100A1C0042F010025A615A6942F480625A615A6972
:100A2C0022F008025A61704700ED00E0EFF30880F5
:100A3C00EFF3098101B57246FFF7A6FF01BD00BFB8
:100A4C000C4880F3088800200B490870102080F3B4
:100A5C0011880A484FF40061401880F30988EFF3BD
:100A6C0014800221084380F31488BFF36F8F00F0C9
:100A7C0049F80000701100202D04002030040020E3
:100A8C001EF0040F0CBFEFF30880EFF309808169AF
:100A9C0011F8021C0229FFD001B5724603F054F97B
:100AAC0001BD00BF002807DB00F01F024009012335
:100ABC009340024A42F82030704700BF00E100E04A
:100ACC00002808DB0901C9B200F1604000F5614063
:100ADC0080F80013704700F00F000901C9B2014BF8
:100AEC001954704714ED00E0044B23F07F03044AC3
:100AFC009360BFF34F8FBFF36F8F704700000008F8
:100B0C0000ED00E008B5FFF7EFFF0B4AD2F8883094
:100B1C0023F47003C2F88830EFF3148323F004033A
:100B2C0083F31488BFF36F8FFFF792FCFFF79CFCE5
:100B3C0000F0ACF801F056FC00ED00E010B4A2F1AE
:100B4C0020040E4942F8081C21F0010142F8081C4F
:100B5C0042F8203C019B42F81C3C029B42F8183C9A
:100B6C00039B42F8143C4FF0807342F8043C04653C
:100B7C000023C0F8A83010BC704700BF5D0300080C
:100B8C0000B50E4615460D4B9860D0F8A4200C4BC2
:100B9C001A60D0F8943083F30B882C4686F30988BE
:100BAC000020044B98472046002100220023024CD1
:100BBC0020470000ED3D00085D030008F80300200D
:100BCC0048030020014B10221A61704700ED00E031
:100BDC00054B5A699B689A4204D0044A536843F007
:100BEC0080535360704700BFF803002000ED00E015
:100BFC0008B50A4B9B68834202D001F0AFFE08BDDA
:100C0C00EFF30583002BF8D0054B5A6842F0805265
:100C1C005A605A6A22F400425A62EEE7F803002046
:100C2C0000ED00E016498A684FF030001044EFF3F5
:100C3C00098C80E8F01F102080F31288BFF36F8FAF
:100C4C00104F4FF000664A698A603E60D2F8A400EB
:100C5C000D4C2060D2F8A8000023C2F8A83080F315
:100C6C00118802F1300090E8F01F8CF3098802F132
:100C7C00000004B503F0ACF8BDE804407047000078
:100C8C00F803002004ED00E048030020002206E0F9
:100C9C0003F00F030949194410230B760132722A11
:100CAC000ADC13B2002BF3DB03F1604303F5614361
:100CBC00102183F80013F1E7704700BFFCEC00E053
:100CCC0008B5EFF30583103B044A02EBC3014968F6
:100CDC0052F833008847FFF77BFF08BDB04F000880
:100CEC0001480068704700004803002010B584B02C
:100CFC000A4C23460A4A01210A4803F0B8F901A814
:100D0C000023019343608360074B0193E41A029420
:100D1C00012103F0B0F904B010BD00BF00000420A5
:100D2C0000000020F45A000878000020024B034A0F
:100D3C00C3F8C020704700BF00ED00E0AAFF4400DC
:100D4C00034BC3F89800C3F89C10C3F8A02070475D
:100D5C0000ED00E00E4BC3F89800C3F89800D3F8F0
:100D6C009C000A7A60F304020A72D3F8A020C2F342
:100D7C004202087A62F347100872D3F89C2022F0E2
:100D8C001F020A60D3F8A03023F01F03CB6070471A
:100D9C0000ED00E0084BD3F89030C3F30723013B80
:100DAC00984205D810B5044603F038F8204610BD1B
:100DBC006FF01500704700BF00ED00E02DE9F04F1B
:100DCC0087B08146009101931446002735E0C34556
:100DDC0066D12946C0B203F047F82DE05A4AC2F852
:100DEC009860D2F89C3003F01F0321F01F010B43D5
:100DFC00C2F89C302946E0B203F036F8044610F1F4
:100E0C00160F00F09A80013416E0013B4E49C1F8F0
:100E1C009860D1F8A02002F01F0223F01F031343A7
:100E2C00C1F8A0302946E0B203F01EF8044610F1D8
:100E3C00160F00F0828001340137009B9F427CDA50
:100E4C0007EB47054FEA850A09EB85056E68002E0E
:100E5C00F2D0019B23B1284602F0F4FF002868D0A1
:100E6C00314659F80A0003F021F8064610F1160F26
:100E7C0062D0844265DD344BC3F89800D3F89C20D3
:100E8C0022F01F02C3F89800D3F8A03043F01F08DB
:100E9C0059F80A306968194401F1FF3B934296D026
:100EAC0093429BD0C345B0D0013B2749C1F8986011
:100EBC00D1F8A02002F01F0223F01F031343C1F846
:100ECC00A0302946E0B202F0CFFF044610F1160F15
:100EDC0033D001301C4BC3F89860D3F89C109DF8AC
:100EEC00102061F304028DF81020D3F8A030C3F366
:100EFC004203D2B263F347128DF8102059F80A203E
:100F0C006B681A44029259F80A20134423F01F0309
:100F1C00A8EB0B084344013B23F01F03059302A9E4
:100F2C00C0B2FFF737FF044610F1160F05D001349D
:100F3C0082E76FF0150400E00446204607B0BDE8D8
:100F4C00F08F6FF01504F8E700ED00E010B5034CDE
:100F5C0001232278FFF732FF207010BD2C040020F3
:100F6C0070B505460E46002400E00134A6421EDD95
:100F7C0004EB44039A0005EB830359680029F4D071
:100F8C00A85802F093FF04EB84030B4A42F82300A9
:100F9C0010F1160F0CD0094B1B78984209DA04EBB0
:100FAC00840302EB83010431FFF7D4FEDDE700205C
:100FBC0070BD6FF01500FBE74C0300202C040020E3
:100FCC00044B0522C3F89420BFF34F8FBFF36F8FF0
:100FDC00704700BF00ED00E0BFF35F8F024B0022B3
:100FEC00C3F89420704700BF00ED00E038B51C4BEF
:100FFC001D681C4BD3F89030C3F307239D422BD8AC
:10100C00FFF7EAFFFFF792FE002407E0144B596844
:10101C0001EB0411204602F001FF0134A542F5D882
:10102C001148057002F053FF10F1160F13D00E4B40
:10103C001A780C4BD3F89030C3F307239A4207DA93
:10104C00084BC3F898200021C3F8A0100132F0E738
:10105C00FFF7B6FF002038BD4FF0FF30FBE700BFB5
:10106C00005B000800ED00E02C04002008B5024BEA
:10107C001B689847002008BD60030020034B1860D4
:10108C00034A937843F00203937070476003002087
:10109C000400002008B5064921F00701C1F10052F7
:1010AC0002F58022034802F003FD002008BD00BFBA
:1010BC00771100206403002000B583B0094B93E83E
:1010CC00030002AB03E90300074B9B681B682BB1C1
:1010DC0069460548984703B05DF804FB6FF057006C
:1010EC00F9E700BFF0530008284E000800F01F027B
:1010FC00012393403F281FD81F280ED80F4AD268CF
:10110C0033EA020205D00D4A1269934303D0002042
:10111C0070470120704701207047084AD26A33EAB1
:10112C00020205D0054A126B934303D0002070478E
:10113C0001207047012070470020704700200244B6
:10114C0000F01F02012393403F280BD81F2804D81E
:10115C00064AD360136100207047044AD3621363BC
:10116C00002070476FF01500704700BF002002444C
:10117C0010B401F00302084C183254F82230090C58
:10118C004FF00F0C0CFA01FC23EA0C0388400343CC
:10119C0044F8223010BC70470020024400239942CE
:1011AC000ADD10B400EB030C044C24F81C200133B2
:1011BC009942F7DC10BC7047704700BF1400002048
:1011CC00F8B50746002401E00134E4B27B78A34271
:1011DC0017D93D7866193046FFF788FF0028F3D001
:1011EC003046FFF7ADFF074B53F83620002AEBD003
:1011FC0006F01F0503EBC60359680120A840904771
:10120C00E2E7F8BD7003002008B5034680B1B0FAE0
:10121C0080F2C2F11F02D2B2064931F91200064A1D
:10122C00D2F880100B43C2F8803002F0C0FD08BD2C
:10123C00FF22F1E71400002000200244034AD2F8F8
:10124C00803023EA0003C2F880307047002002444B
:10125C00032926D8DFE801F0020C151E114B1A6881
:10126C0022EA00021A605A6822EA00025A607047A9
:10127C000C4B1A6802431A605A6822EA00025A6040
:10128C007047084B5A6802435A601A6822EA0002F7
:10129C001A607047034B1A6802431A605A6810436D
:1012AC00586070470020024410B498B1B0FA80F333
:1012BC00C3F11F03DBB29C460D4850F83300884243
:1012CC000AD088B90A4B43F83C1003EBCC035A60A4
:1012DC0010BC7047FF23EEE7054C04EBC3035B68BF
:1012EC009342EED10020F3E76FF00F00F0E700BF60
:1012FC007003002060B1B0FA80F3C3F11F03DBB2BE
:10130C00044A002142F8331002EBC30251607047CB
:10131C00FF23F5E770030020C30403F4C013C0F3EC
:10132C0081001830044A52F820001B0C0F229A40FE
:10133C001040D840704700BF002002440C4A13688C
:10134C0023F00403136000E033B1094B5B6813F026
:10135C000103F9D00123F7E703F1804303F541338F
:10136C000222DA601A6842F001021A60704700BF6C
:10137C0000040340012801D000207047004870474A
:10138C000090D00308B5074BDB6913F0180305D0A8
:10139C00182B05D10120FFF7EDFF08BD0248FCE733
:1013AC000020FAE7000C02440090D003004870477C
:1013BC000090D00370B582B00C4615464A4B1E689F
:1013CC000121304602F017FF2388C3F30B021346AA
:1013DC00102A14D812B262B1013B0F2B7BD8DFE874
:1013EC0003F0487A7A7A7A4C7A2D42444673754FD8
:1013FC005B676FF085002EE06FF085002BE0942A80
:10140C000FD9A82A6AD89C2A2AD39C3B0C2B5FD8CC
:10141C00DFE803F0295E5E5E295E5E5E2B5E5E5E3B
:10142C002D00882A19D303F67873C3F30B0341F20A
:10143C00110222FA03F313F0010FDDD02E602368A2
:10144C00B3F5805F4DD32A68C3F313330133B2FB7A
:10145C00F3F22A60002002B070BD6FF08500FAE74D
:10146C006FF08500F7E72860E9E72860E7E7286078
:10147C00E5E7FFF79BFF2860E1E71C4B2B60DEE7FD
:10148C000120FFF777FF0223009300231E2208217F
:10149C0002F0B4FE2860D2E70120FFF76BFF0423B3
:1014AC00009300231E22082102F0A8FE2860C6E744
:1014BC000120FFF75FFF0223009300231E22082167
:1014CC0002F09CFE2860BAE72E60B8E72E60B6E703
:1014DC006FF08500BFE76FF08500BCE76FF085000B
:1014EC00B9E70020B7E700BF4C0000200090D00304
:1014FC0038B504460D461046FFF73CFFB0FBF4F040
:10150C00A0F57423A3F51073134A934202D800205C
:10151C00286038BDA0F5F413A3F281430F4A93421F
:10152C0003D801232B600020F3E7A0F57413A3F676
:10153C0001130B4A934203D802232B600020E8E7E7
:10154C00084B0344084A934203D203232B60002028
:10155C00DFE76FF02100DCE740420F007F841E00C4
:10156C00FF083D00FFED85FF00127A00164B9842F4
:10157C0005D8164A136923F0300313611CE0144B91
:10158C00984207D8114A136923F0300343F0100333
:10159C00136111E00F4B984207D80C4A136923F0E2
:1015AC00300343F02003136106E0084A136943F04B
:1015BC003003136100E033B9044B5B6913F008038B
:1015CC00F9D00123F7E7704700E1F5050008024464
:1015DC0080D1F00800C2EB0B114B1B6813F0020F0B
:1015EC000ED10F4A136843F00103136001E0012B85
:1015FC0006D00B4B1B6813F00203F8D00123F6E75F
:10160C00074AD36923F00303D361054BDB6913F05D
:10161C00180FFAD1024A136A23F00F0313627047B2
:10162C00000C024410B582B0394BDB6903F018038F
:10163C00182B55D0364A136823F080731360936AC5
:10164C0023F0030343F001039362012201A9082054
:10165C00FFF74EFF002859DB019C204602F019FED3
:10166C002B4B9A6A22F47C5242F400629A629A6A78
:10167C0022F00C0242EA84029A629A6A22F0200258
:10168C0042EA40129A625A6B6FF3080242F01D0252
:10169C005A639A6A22F010029A625A6B22F47E42C2
:1016AC0042F400725A639A6A42F480329A625A6B1C
:1016BC0022F4FE0242F440325A639A6A42F4003237
:1016CC009A625A6B22F0FE4242F080725A639A6A16
:1016DC0042F480229A621A6842F080721A6004E026
:1016EC00FFF77AFFA6E7012B06D0094B1B6813F016
:1016FC000073F8D00123F6E7054BDA6A22F00302F7
:10170C00DA621A6B22F003021A63002002B010BDD9
:10171C00000C02440F4A136923F4FE0343F48003C4
:10172C001361136813F0020F0DD1136843F001031A
:10173C00136001E0012B06D0064B1B6813F002036B
:10174C00F8D00123F6E7034A136823F0180313605B
:10175C00704700BF000C024438B5FFF713FE214B55
:10176C001B6A03F00F03204AD35C20FA03F41F4DCD
:10177C002846FFF7FBFEAC422CD3FFF7CBFFFFF75D
:10178C0051FF002825DB174B1A6A22F00F021A6250
:10179C001A6A22F070021A621A6A22F4E0621A6261
:1017AC001A6A22F4E0421A62DA6922F00302DA6160
:1017BC000C4BDB6913F0180FFAD10C4B9C420DD279
:1017CC00084AD36923F40043D361094B074A1A60D2
:1017DC00002038BD284600F01BFCCEE7184600F070
:1017EC0017FCEDE7000C0244105C0008001C4E0EC8
:1017FC004C000020102806D8064BC34013F0010FF4
:10180C0004D0002070476FF0850070476FF08500A2
:10181C00704700BF42FF010010B504460A2806D0ED
:10182C00E1B2064883685B689847204610BD0348C0
:10183C0083685B680D219847F2E700BF944F00085E
:10184C0010B5044C2046FFF719FC2046FEF762FD4C
:10185C0010BD00BF2518000808B5054803F042F973
:10186C0018B1FFF7EDFF002008BD6FF01200FBE789
:10187C00944F00082DE9F84380460F4616461C4647
:10188C00D0F80490D9F8080002F0A5FCB6F5001FBA
:10189C000ED00546B6F5800F2AD0B4F1806F0ED06D
:1018AC00B4F1C06F0DD0B4F1007F24D1022609E051
:1018BC003946D9F8080002F002FE002415E0012692
:1018CC0000E0032642460F492846FFF7EDFC04468C
:1018DC00A0B9D9F80810384602F082FC31462846E7
:1018EC00FFF7B6FC2846FFF78FFC2046BDE8F883CF
:1018FC006FF08504F9E76FF01504F6E76FF00F044D
:10190C00F3E700BFEF4300082DE9F04106460C4613
:10191C0043681D680369D3F800800B79012B04D050
:10192C00022B0DD14FF4806101E04FF4C06162795C
:10193C00012A07D0022A08D08AB94FF4805E06E04B
:10194C000021F4E74FF0000E01E04FF4405EA77960
:10195C00022F07D0042F0BD023BB00200AE04FF43A
:10196C00005EF4E70BB1002004E04FF0805001E082
:10197C004FF48050A3F1030C5FFA8CFCBCF1010F07
:10198C0040F2F68013B1042F00F0F580BEF5805FB5
:10199C000BD0BEF5405F0AD0BEF1000F40F089803D
:1019AC00012305E04FF48050E4E7002300E002231C
:1019BC009A4240F0E38002F0C2FE874240F0E180A0
:1019CC00E379002B60D0012B75D0032B40F0DC8029
:1019DC00724B9D4258D003F180539D4254D0704BB2
:1019EC009D4251D003F180539D424DD06D4B9D4291
:1019FC004AD003F180539D4246D06B4B9D4243D05D
:101A0C0003F180539D423FD0684B9D423CD0B5F1D1
:101A1C00502F39D003F5A0539D4235D003F180539C
:101A2C009D4231D0624B9D422ED003F180539D429A
:101A3C002AD0604B9D4227D003F180539D4223D086
:101A4C005D4B9D4220D003F180539D421CD05B4BDB
:101A5C009D4219D003F180539D4215D0584B9D42A5
:101A6C0012D003F180539D420ED0564B9D420BD0A9
:101A7C0003F180539D4207D0534B9D4204D003F198
:101A8C0080539D4240F083802B6823F001032B6030
:101A9C002146304602F068FE00287BDB2B6843F0C1
:101AAC0001032B6094E8030088E803000020BDE8E4
:101ABC00F08103237CE7394A9542E5D002F180524C
:101ACC009542E1D0364A9542DED002F180529542E1
:101ADC00DAD0344A9542D7D002F180529542D3D015
:101AEC00314A9542D0D002F180529542CCD02F4A47
:101AFC009542C9D0B5F1502FC6D002F5A0529542EF
:101B0C00C2D002F180529542BED0294A9542BBD038
:101B1C0002F180529542B7D0264A9542B4D002F1D8
:101B2C0080529542B0D0244A9542ADD002F18052F9
:101B3C009542A9D0214A9542A6D002F180529542F5
:101B4C00A2D01F4A95429FD002F1805295429BD061
:101B5C001C4A954298D002F18052954294D01A4A70
:101B6C00954291D002F1805295427FF42EAF8BE7D3
:101B7C006FF085009BE76FF0850098E76FF08500AC
:101B8C0095E76FF0850092E76FF085008FE76FF0B7
:101B9C0085008CE76FF0850089E700BF00380140B5
:101BAC000044004000480040004C00400050004001
:101BBC0000780040007C004000800040006800403D
:101BCC00006C0040008400400024004408B5024A28
:101BDC0002F0CEFE08BD00BFDD49000808B5024A80
:101BEC0002F0D9FE08BD00BFE3490008F8B506466F
:101BFC0045682C6803691F68236823F00103236080
:101C0C00A86802F06FFF002800F0BF80E968A868A0
:101C1C0002F056FD54E8003F43F00C0344E8003258
:101C2C00002AF7D13946304602F09EFD0028C0F25A
:101C3C00AF802B7E1BB1A36843F00803A3606B7EBF
:101C4C001BB1636843F400436360AB7E1BB16368F4
:101C5C0043F480336360EB7E1BB1636843F4003361
:101C6C0063602B7F002B74D04C4B9C4257D003F1FC
:101C7C0080539C4253D04A4B9C4250D003F180532A
:101C8C009C424CD0474B9C4249D003F180539C4220
:101C9C0045D0454B9C4242D003F180539C423ED0F0
:101CAC00424B9C423BD0B4F1502F38D003F5A0539B
:101CBC009C4234D003F180539C4230D03C4B9C422C
:101CCC002DD003F180539C4229D03A4B9C4226D014
:101CDC0003F180539C4222D0374B9C421FD003F11E
:101CEC0080539C421BD0354B9C4218D003F180533F
:101CFC009C4214D0324B9C4211D003F180539C4235
:101D0C000DD0304B9C420AD003F180539C4206D03C
:101D1C002D4B9C4203D003F180539C423BD1736802
:101D2C001A68936843F4804393606A7F236823F0B6
:101D3C00787343EA42532360AA7F236823F4F81391
:101D4C0043EA02432360EB7F1BB1A36843F40043D7
:101D5C00A36095F820301BB1236843F00053236037
:101D6C00236843F00103236000E033B9E36913F403
:101D7C000013FAD00123F8E72AB9E26912F48002C1
:101D8C00FAD01A46F8E70020F8BD6FF01200FBE716
:101D9C006FF01500F8E76FF01500F5E7003801401B
:101DAC000044004000480040004C004000500040FF
:101DBC0000780040007C004000800040006800403B
:101DCC00006C004000840040002400444FF0E023ED
:101DDC00996918699A6909B90C4B19680AB90B4BBE
:101DEC001A6810F4803F01D1914208D208490B685F
:101DFC000648006803440B604FF0E0231B69034B5B
:101E0C001B689B1A024A106818447047F4030020A0
:101E1C00F0030020094B102283F82320084B45F6D1
:101E2C00C0521A600020074B18604FF0E02345F6B3
:101E3C00BF525A61986107221A61704700ED00E0A9
:101E4C00F4030020F0030020684620F007018D46C3
:101E5C0019B5FFF7BBFF12480368124A51681468A2
:101E6C001B1941F1000113605160002202600E4900
:101E7C000A68981A0D4BA3FB0030400A45F6C05374
:101E8C0000FB03F3D2184B6843F100030A604B606C
:101E9C0000F080FFFEF79CFEBDE8194085467047B8
:101EAC00F00300208000002078000020F119760556
:101EBC00F8B500294BD0B0F1FF3F3DD03E4B1C682C
:101ECC0001284CDD40F2BB239842A8BF1846461EA1
:101EDC00EFF31185102383F31288BFF36F8FFFF795
:101EEC0075FF4FF0E0239F69344A13685168C3189B
:101EFC0041F10001136051600021314A1160314AF7
:101F0C0011685A1A2DD445F6C05000FB062202F572
:101F1C00BB423F322C4EA6FB0262520AC91A00FB8E
:101F2C00021140F2DC538B4238BF0B46274A9142D8
:101F3C0035D9214B1A6018E04FF0E022136923F0D9
:101F4C00010313611C4B4FF07F421A6026E01A4BC1
:101F5C001C68B0F1FF3FB3D140F2BA20B2E70026C3
:101F6C00B6E7154B40F2DC521A604FF0E02399694A
:101F7C00114A1268013A5A6100229A618F4211D2B9
:101F8C00641A3C440D4A136851681B1941F1000155
:101F9C001360516085F31188BFF36F8FF8BD064A4B
:101FAC001360E2E77F1A054A13685168DB1941F1A7
:101FBC00000113605160EDE7F40300208000002065
:101FCC00F003002078000020F1197605809DFF00B9
:101FDC0038B5EFF31185102383F31288BFF36F8F9D
:101FEC00084B1C68084B1B68E41AFFF7EFFE2044F3
:101FFC0085F31188BFF36F8F044BA3FB0030400AAD
:10200C0038BD00BF8000002078000020F119760553
:10201C00002800F09B804F4B1B6903F03003302BE2
:10202C001CD04C4B1B6903F03003202B2AD0494B9E
:10203C001B6903F03003102B38D0474B98427BD9E7
:10204C00464B98427AD9464B984279D9454B98429F
:10205C0078D9454B98427BD8042139E0434B9842C0
:10206C0035D9434B984247D9424B984246D9424BBB
:10207C00984245D9414B984244D9414B984243D957
:10208C00012070473F4B984240D93F4B98423FD973
:10209C003E4B98423ED93E4B98423DD93D4B9842DF
:1020AC003CD93D4B98423BD9012070473B4B984261
:1020BC0038D92B4B984237D9394B984236D9394BB2
:1020CC00984235D9384B984234D9012070470021B9
:1020DC00364A136823F00F030B4313600222334B71
:1020EC001B6803F00F03013A994201D0002AF6D184
:1020FC00994229D0012070470121E9E70221E7E745
:10210C000321E5E70421E3E70521E1E70021DFE70F
:10211C000121DDE70221DBE70321D9E70421D7E721
:10212C000521D5E70021D3E70121D1E70221CFE733
:10213C000321CDE70421CBE70021C9E70121C7E743
:10214C000221C5E70321C3E7002070470120704737
:10215C000120704700080244002D3101005A620230
:10216C000087930300B4C40400E1F50580DE80020F
:10217C0000BD0105809B8207007A030A8058840CFD
:10218C0080B2E60E80CC060200990D048065140620
:10219C0000321B0880FE210A00C2EB0B80C3C90170
:1021AC00804A5D05000E270780D1F0080020024010
:1021BC0038B5EFF31185102383F31288BFF36F8FBB
:1021CC00054B9C6802F0A6FC85F31188BFF36F8F5A
:1021DC002046FEF70DFD38BDF803002010B586B083
:1021EC00B023104C03FB004400EB800C0E4B03EBB4
:1021FC008C030E4A0592012204920F2203920022B4
:10220C000292019200930A4B4FF4A072094901EB20
:10221C008C11204600F022F9237C23F00403237454
:10222C0006B010BD88000020F80300208C5900086F
:10223C00274B0008300C002038B505460B4B53F8E3
:10224C00204002E02368984708346B1C074A52F878
:10225C002330A34209D960680028F3D0037E13F021
:10226C00010FF1D102F025FCEEE738BD205C00082F
:10227C0008B553EA020102D100F046FB08BD024941
:10228C00183000F0EDFCF9E7954C000810B586B05D
:10229C00184C14E0636A0593236A0493E36903936F
:1022AC00A36902936369019323690093E368A268AD
:1022BC006168206800F0D2F823685C6530340E4BFE
:1022CC009C42E7D300F0CEFA0A4C03E02068FFF7FB
:1022DC00CFFF3034084B9C4208D2A26AE36AB3F1B8
:1022EC00FF3F08BFB2F1FF3FF3D0EFE700F0D2FAA7
:1022FC0006B010BD485300084853000808B50A4BF7
:10230C0001221A700320FFF797FF00F0A5FD0420AF
:10231C00FFF792FFFFF7BAFFFDF7E8FF034A938937
:10232C0023F00103938108BD2D0400203801002007
:10233C0008B50146014A0248FEF722FC09230008B1
:10234C003801002010B50446FFF748FFB0230A49B6
:10235C0003FB0411094A04EB840302EB8303D960E9
:10236C001C74074B03EBC42303F5006304EB8404D8
:10237C0002EB8402536010BD88000020F80300209B
:10238C003004002070B586B000F0B6FA104D114B39
:10239C005D61114B05930123049300240394029473
:1023AC00019400940D4B4FF480620D49284600F0C7
:1023BC0055F806462B7C23F004032B74284602F0B8
:1023CC002EFC2046FFF7BEFF304606B070BD00BFA6
:1023DC0038010020F8030020945900080923000854
:1023EC00700D002008B50020FFF726FF184B03F5F1
:1023FC00006282F3088883F30A88164CF02384F871
:10240C0022300023E37723766376A37684F820309A
:10241C00636A43F4E0236362FEF7F8FAFEF7D2FB3B
:10242C004FF0FF33A362E362FEF7E0FDFEF75EFCC4
:10243C00094800F075F8FDF7F3FF0120FFF7FCFEEB
:10244C000220FFF7F9FEFFF79DFFFFF771FF00BFBA
:10245C003004002000ED00E0E80100202DE9F04FF1
:10246C0085B004460F4615461E46DDF838A0DDF84B
:10247C003C90DDF84080DDF84CB000F158038365EA
:10248C00C365129B0422119902F069FB2A46394656
:10249C00204602F04FFB0546CDF80880CDF804909D
:1024AC00CDF800A03346024639462046FEF746FBDF
:1024BC00002363652666C4F864A0C4F86890C4F869
:1024CC006C80EFF31182102383F31288BFF36F8FAC
:1024DC00124B196A21671C6282F31188BFF36F8F4C
:1024EC00BBF1000F13D01F22594604F1740000F009
:1024FC0013FD002384F89330084B9B685BB1D3F831
:10250C00A030C4F8A030284605B0BDE8F08F0023F9
:10251C0084F87430F0E7C4F8A030F4E7F803002036
:10252C000123037483810023C0F89430C0F89830E1
:10253C00C0F8A030014B9860704700BFF803002032
:10254C000A4A9368C3F8A8006FF00A01C3F8AC10EC
:10255C0007494B6843F080534B60002383F3118889
:10256C00BFF36F8F9368D3F8AC007047F80300206B
:10257C0000ED00E0084681B908B5EFF305833BB9DF
:10258C00084B5A699B689A4202D0FFF7D9FF03E0C7
:10259C0080F31188BFF36F8F08BD81F31188BFF3EF
:1025AC006F8F7047F8030020037C90F91020002AED
:1025BC004EDB13F01F0F4BD110B563F07F03037488
:1025CC00244A52F8183F93423AD07BB190F90E103E
:1025DC0093F90E20914202D0521A002A27DC194698
:1025EC001C4AD269934201D01B6833BB194BDA6980
:1025FC0003F11801016042601060D861154B53F86B
:10260C00184F9C421ED0ECB1124B9B681A7C12F0F6
:10261C001F0F04D1DA897F2A01D9A269AAB1A3427A
:10262C0002D0204600F082FA0A4B5C6110BD5A6859
:10263C004260036010605860E0E70029C5D1D5E71F
:10264C000023C2E7034BDC68DEE7024A5361EDE787
:10265C00704700BFF803002010B5037C90F91020E0
:10266C00002A19DB154B9A6853F8184F9C421ED060
:10267C00ECB1824208D0137C13F01F0F04D1D38924
:10268C007F2B01D9A369ABB1A24202D0204600F046
:10269C004DFA0A4B5C6110BD03F07F030374426872
:1026AC00036813605A60002303604360DAE7034B4E
:1026BC00DC68DEE7014B5A61EDE700BFF803002050
:1026CC002DE9F84305460C46424B9E68337C13F0CB
:1026DC00600F2BD013F0200F2DD008271F4225D1CF
:1026EC003B43337413F0800F27D1082F30D04FF0B9
:1026FC000009384B53F8188F98454FD0B8F1000F9C
:10270C004CD0344B9B68434502D0404600F00EFA47
:10271C00304BC3F81480102F08D0304601F05DFB0D
:10272C00304600F05DFAB9F1000F3BD184F311880B
:10273C00BFF36F8F47E01027D0E703F07F033374AC
:10274C007268336813605A60002333607360CCE79F
:10275C00B3685BB17268336813605A6000233360EE
:10276C007360327C22F002023274B36006F11800FE
:10277C0002F0D7FA06F1580002F02EFA154B9B68BE
:10278C009E4202D04FF00009B3E7EFF3058313B973
:10279C004FF00009ADE74FF00109AAE70D4BD3F854
:1027AC000C80AEE70C48FFF7BBFEBFE7EFF31184DC
:1027BC00102383F31288BFF36F8F02F0B9F984F3FF
:1027CC001188BFF36F8F2B7C13F0600FEED1BDE837
:1027DC00F88300BFF8030020E801002010B5204B5F
:1027EC009A68DB699A4205D01368516812680A60CE
:1027FC00516006E00023F8E7194AD269934212D0DF
:10280C001B6883B1164A906890F90E1093F90E204C
:10281C009142F1D0521A002AEEDD5A6842600360F0
:10282C001060586008E00E4B9A68D96903F11800E3
:10283C00106051600A60DA61094B53F8184F9C42E2
:10284C000AD04CB1064B9B689C4202D0204600F04B
:10285C006DF9034B5C6110BD014BDC68F2E700BF06
:10286C00F80300200023EFF31181102282F3128869
:10287C00BFF36F8F09E0064B9A68D37B013BD37390
:10288C0081F31188BFF36F8F0123002BF3D07047B6
:10289C00F803002038B5EFF31185102383F3128869
:1028AC00BFF36F8F124B9A68D17B0131D17353F800
:1028BC00184F9C4215D0A4B1137C13F01F0F04D1F8
:1028CC00D3897F2B01D9A36973B1944202D02046DE
:1028DC0000F02CF9064B5C6129460648FFF74AFECE
:1028EC0038BD034BDC68E7E7014B5A61F4E700BFE6
:1028FC00F80300201C04002008B5024802F0DBF9A4
:10290C0008BD00BF0C04002038B5EFF3118510236F
:10291C0083F31288BFF36F8F037C13F0040F04D181
:10292C0085F31188BFF36F8F38BD0446183002F061
:10293C00F8F9237C23F0040323742046FFF734FEBC
:10294C0029460248FFF716FEEEE700BF1C040020E4
:10295C00014B9868704700BFF80300202DE9F8433D
:10296C00838903F00107EFF31186102383F3128898
:10297C00BFF36F8F057C15F0080F1AD10446B146D2
:10298C0000F1580802F0F6F810B345F02005257454
:10299C00EFF305839BB131462046FFF791FE67B1FB
:1029AC00002383F31188BFF36F8F0423184602DFD3
:1029BC0003E086F31188BFF36F8FBDE8F8834146BF
:1029CC003F4B986802F0D8F83046FFF7B9FDE6E7C0
:1029DC0045F00803237413F0800F36D1A3685BB164
:1029EC006268236813605A60002323606360227C52
:1029FC0022F002022274A36004F1180002F091F993
:102A0C00404602F0E9F82E4B9A6894422AD00026F0
:102A1C002B4B53F8185F9D422BD055B3AA4202D0D2
:102A2C00284600F083F8264B5D61204601F0D5F96D
:102A3C00204600F0D5F8FEB9214B9B689C421FD074
:102A4C0089F31188BFF36F8FA9E705F07F0545F077
:102A5C00080525746268236813605A60002323609C
:102A6C006360BBE7EFF305830BB90026D0E70126C3
:102A7C00CEE7134BDD68D1E71248FFF751FDDBE7DA
:102A8C00EFF30583002BDBD1A38913F0010F12D0D8
:102A9C0089F31188BFF36F8F002383F31188BFF381
:102AAC006F8F0423184602DFEFF31189102383F391
:102ABC001288BFF36F8F4846FFF742FD6FE700BFE8
:102ACC00F8030020E80100200346027C12F01F0FDF
:102ADC0010D10B4A90420FD00A4A106878B1DA89AB
:102AEC007F2A0BD893F90E20074B1B689A4206DA03
:102AFC00002070470020704700207047002070476E
:102B0C00880000205000002024040020044BC01A30
:102B1C00C010044B03FB00F0034B01221A54704706
:102B2C0098020020ABAAAAAA2004002070B50C4B76
:102B3C001E7CFFF7C9FF044606EB4603094D05EB67
:102B4C00C305284602F0EDF8074B00229A5504B94C
:102B5C0070BD621ED3170549284600F081F8F7E7CF
:102B6C00F80300209802002020040020192B0008F4
:102B7C0038B5EFF31185102383F31288BFF36F8FF1
:102B8C00144B9C68144B1B68A34217D0124B0022A9
:102B9C001A60104B1B7C114AD35C53B12046FFF7D3
:102BAC0093FF30B1237C13F01F0F0FD02046FFF79B
:102BBC00BDFF85F31188BFF36F8F38BD2046FFF73B
:102BCC00B5FF85F31188BFF36F8FF6E7FFF706FEAD
:102BDC00ECE700BFF80300201C04002020040020B8
:102BEC00EFF31181102383F31288BFF36F8F0A4B1D
:102BFC001B6A834204D11A6F074B1A6207E0134613
:102C0C0013B11A6F8242FAD10BB1026F1A6781F3BA
:102C1C001188BFF36F8F7047F8030020034B1868BF
:102C2C00984200D070470020FCE700BF5400002001
:102C3C0030B1044A5268904201D0006870470020BD
:102C4C00704700BF5400002008B5044B1B680BB143
:102C5C00002008BDFFF7BCF9FBE700BF28040020EB
:102C6C002DE9F04F83B0B3F1FF3F08BFB2F1FF3F46
:102C7C000ED0044691461F4681600023EFF3118A63
:102C8C00102282F31288BFF36F8F1D46019335E03B
:102C9C00002501952846019903B0BDE8F08FFFF798
:102CAC00D3FF8046013547F10006451946EBE07627
:102CBC0025616661344A13685268ED1846EB0203CD
:102CCC0001934FF0010B38E0C91A66EB0202016167
:102CDC0042614368636020601C60446005E02B4BDC
:102CEC005A682360626014605C60FFF797FF84424F
:102CFC0037D08AF31188BFF36F8F0123002BC9D112
:102D0C004D460197002FCADA1F4B19685B6869188A
:102D1C0043EB07036FF00102521A4FF0FF3161EBE6
:102D2C00030310461946012A73F1000301DA01204E
:102D3C000021206161614FF0000BFFF76FFF00284D
:102D4C00CDD001694669236962698B4272EB060E2C
:102D5C00BADB5B1A62EB060223616261FFF768FF64
:102D6C00EDE70B4B1B68002BC3D1BBF1000F06D05A
:102D7C00404601F0BBFF0021FFF79AF8B9E7FFF7D7
:102D8C0063FF8046F4E700BFB0020020540000202F
:102D9C002804002070B5EFF31186102383F31288FA
:102DAC00BFF36F8F2A4B1860FFF738FF044623E000
:102DBC00284A136851685B1941EBE5711360516047
:102DCC0000220023C4E90423204601F078FF86F397
:102DDC001188BFF36F8FA36820469847EFF31186D5
:102DEC00102383F31288BFF36F8F194A13685B1B90
:102DFC001360FFF713FF04463CB125696169144B5E
:102E0C001A68D317AA428B41D2DA44B1236962699A
:102E1C000F4909685B1A62EBE172236162610D4A2A
:102E2C000B4D2868136851681B1841EBE071136057
:102E3C00516000242C60204601F058FF2146FFF71A
:102E4C0037F886F31188BFF36F8FFFF791FE70BDD3
:102E5C0028040020B002002008B5024800F06FFEE4
:102E6C0008BD00BF9C59000870B586074FD0841868
:102E7C00844604E003F8011B9D0704D09C4664457E
:102E8C006346F7D170BD013A0244A2EB0C02032A4F
:102E9C002FD9CCB20F2A04EB042404EB044438D908
:102EAC00A2F110069C464FF0000E350901350EF1CB
:102EBC00010EAE45CCE90044CCE902440CF1100CF7
:102ECC00F5D326F00F06103312F00C0F02F00F059D
:102EDC0033441AD02A1F1C60032A05D9A5F1080215
:102EEC005C60032A88BF9C6005F0030225F0030593
:102EFC002B44541E002AC5D0C9B21970002CC1D065
:102F0C00012C597018BF997070BD2A46F1E7034621
:102F1C00BDE71546DEE700BF38B540EA01030446BD
:102F2C009B0701D1032A0ED820464B1E4AB113F839
:102F3C00011F013A00F8011B0029F7D10AB1FFF774
:102F4C0093FF204638BD8C46DCF8005061460CF1EE
:102F5C00040CA5F1013323EA050313F0803FE4D1FF
:102F6C00043A40F8045B032AEED86146DDE700BF63
:102F7C0071B1034601EB000C01E0634506D01A4623
:102F8C00013311780029F8D1101A7047181A7047BC
:102F9C00084670470FB400B583B0064B04AA1868F6
:102FAC0052F8041B019200F08FF803B05DF804EBAB
:102FBC0004B07047285B000830B58E4603F01F0143
:102FCC00844608296CD0C3F1370310291046DCB2B3
:102FDC004AD04FEA9C024FEA5C0542EA8E7245EAFF
:102FEC00CE754FEA5E015FFA8CF312EB050C41EBE8
:102FFC009E014FEA1C1242EA017212EB0C0C41EBDF
:10300C0011114FEA1C2242EA016212EB0C0241EB55
:10301C0011214FEA124C4CEA014C1CEB020C41EB17
:10302C00114111EB0C0C41F100014FEADC0C4CEAA4
:10303C00417C4FEAD10E0CEB8C02A3EB4203DBB2CA
:10304C00A3F10A02092B03F13001D2B222D91CF1EF
:10305C00010C04EB02014EF1000E092A01F13002C1
:10306C002ED900F8012BB4E70CF00F034FEA1C1219
:10307C004FEA1E11092B04EB030542EA0E728E4631
:10308C0088BFEBB294460A4303F1300300F8013BCE
:10309C00EAD130BD5CEA0E0300F8011B99D130BDBA
:1030AC0010460CF007034FEADC0C30334CEA4E7C34
:1030BC004FEADE0E00F8013B5CEA0E03F1D130BDA5
:1030CC00263300F8013B84E72DE9F04F83788BB071
:1030DC00D0F804909E0740F130810B4680460C4698
:1030EC0013F8010B002800F0D683002600920CE0A8
:1030FC001C4641460136C8470028C0F218812346B9
:10310C0013F8010B002800F01A812528F0D16578FE
:10311C000234252DEDD04FF0000BDA465F461F2F01
:10312C005DD97F2F00F28A80A5F13003092B11D8CD
:10313C007D0600F132810AEB8A0A14F8015B47F034
:10314C00200703EB4A0AA5F13003002D00F0E180C3
:10315C00092BF0D92A2D00F00E812E2D00F06C8158
:10316C00A5F14C032E2B00F22581DFE813F0610052
:10317C002301230123012301230123012301230123
:10318C002301230123012301230123012301230113
:10319C002301230123012301230123012301230103
:1031AC0023012301230151012301610023015D014E
:1031BC002301230123012301230123012301CD003A
:1031CC0023012301230123012301CD0047F0020732
:1031DC0014F8015B47F00407002D00F09A80A5F16C
:1031EC002003102BA0D801A252F823F0DD310008E7
:1031FC0035310008353100085333000835310008EB
:10320C003531000835310008153300083531000818
:10321C003531000835310008D93100083531000846
:10322C00733300083531000835310008633300086A
:10323C0014F8015B47F42077002D6AD0A5F14C03FC
:10324C002E2B00F2B78001A252F823F03D32000879
:10325C00C1330008C1330008C1330008C133000872
:10326C00C1330008C1330008C1330008C133000862
:10327C00C1330008C1330008C1330008C133000852
:10328C00C1330008C1330008C1330008C133000842
:10329C00C1330008C1330008C1330008C133000832
:1032AC00C1330008C1330008C1330008C133000822
:1032BC00C1330008C1330008C133000815340008BD
:1032CC00C13300083D320008C13300082D3400081A
:1032DC00C1330008C1330008C1330008C1330008F2
:1032EC00C1330008C1330008C1330008F9340008A9
:1032FC00C1330008C1330008C1330008C1330008D2
:10330C00C1330008F934000814F8015B002D7FF478
:10331C0006AF002541462520C847002807DB284674
:10332C004146C847002806F10206BFF6E8AE98F8F9
:10333C00023043F0040388F802304FF0FF36304679
:10334C000BB0BDE8F08F14F8015B47F01007002DAF
:10335C007FF445AFDDE714F8015B47F00107002D62
:10336C007FF43DAFD5E714F8015B47F00807002D5B
:10337C007FF435AFCDE70099780651F8042B40F176
:10338C00C18014F8015B002D00F03482A5F13003EC
:10339C0093460091092B3FF6DDAE0BEB8B0B14F82B
:1033AC00015B03EB4B0B002DB3D0A5F13003092BC4
:1033BC00F3D9CFE645F02002A2F16503612A18BFCC
:1033CC00022B94BF01230023BBF1000FC0F29480A9
:1033DC00002B3AD1A5F16303122B00F2BC81DFE87C
:1033EC0013F0FE00A300BA01BA01BA01BA01A3009E
:1033FC00BA01BA01BA01BA01BA01D1015901BA0133
:10340C00BA014501BA010801F80548BF47F4007735
:10341C0014F8015B47F48077002D7FF40FAF78E749
:10342C003D0648BF47F4007714F8015B47F080076E
:10343C00002D7FF403AF6CE77B0680D414F8015B9E
:10344C0047F04007002DB0D163E7009B03F1070B59
:10345C002BF0070B0BF108034FF0070B0093B54B48
:10346C003907D44618D4D34516D24D461F46D146FB
:10347C0002E0934508D2924641462020A8470028F6
:10348C000AF1FF32F5DA52E7CC4601363B46A94643
:10349C0066449446A6EB0A06019403EB0B074C46D4
:1034AC001D46E246994605E015F8010BA047002899
:1034BC00FFF63DAFBD424146F6D14B46AAEB0B0A97
:1034CC00A146019CF31A1D442E46AA444D4605E024
:1034DC00A847002806F10106FFF629AFAAEB060360
:1034EC0041462020002BF3DCA94608E614F8015BCA
:1034FC00002D7FF416AE0CE727F040074FF0000BC1
:10350C00BFB265E7002AC0F2178114F8015B47F0DF
:10351C002007002D00F06E81A5F13003924600913A
:10352C00092B7FF608AE15E63A06009B00F11B81CD
:10353C001A46F90552F8043B019200F1AE811A4685
:10354C00DB1727F01001002B89B20091C0F28B81A0
:10355C0052EA030140F0228207F0400302937B06FB
:10356C0003D5BBF1000F00F070810020014604AAC6
:10357C000A230392FFF720FD039A831A029A002A6A
:10358C0000F06881009A9B45594622F00102B8BFB1
:10359C00194692B20092DDF800C040F206470CF0DA
:1035AC0008001CEA070F024600F00E8201310028C9
:1035BC0000F06381AAEB010A02934146009B751C43
:1035CC0013F0020F14BF2B20202013F4806F18BFB0
:1035DC002D20C8470028029B80F29480A7E6009912
:1035EC004FF0010B04AB51F8042B8DF81020009117
:1035FC0036E727F010070A23BFB217F080024ED02F
:10360C0017F40071009A00F09080073222F0070244
:10361C00516852F8080B019207F0400C50EA010275
:10362C00CDF800C048D162461AB1BBF1000F00F0D2
:10363C00138104AA002100200292FFF7BDFC029A1C
:10364C000099831A002900F0DB8027F017019B45B5
:10365C0089B2009140F3A280002D40F0BF80390761
:10366C0040F1C681AAEB0B0A35464EE0009D55F899
:10367C00043B002B00F0B08017F0400F184601936C
:10368C0014BF59464FF0FF31FFF772FC019B834684
:10369C000095E5E647F0100710237825ADE7009973
:1036AC0051F8040B019117F48071B5D017F4007127
:1036BC0066D0C0B21146AFE704AA0292FFF77CFCB9
:1036CC00029A0099831A00295FD127F00601FF06A0
:1036DC0089B2009140F19880009A02F00802002D06
:1036EC0040F09980591C002A00F0E280AAEB010AF4
:1036FC00302041460093C847002806F10105009B85
:10370C00FFF615AE9B4540F352810BEB05064F4679
:10371C009946F61A01E0B5426ED041463020B847C2
:10372C00002805F10105F6DA01E652F8040B0192C6
:10373C0072E700BFD059000814F8015BC2F1000A0F
:10374C0047F02807002D55D0A5F130030091092B27
:10375C007FF6F1ACFEE4782A7FF4DCADC5F178039A
:10376C0043F0100349E7B80540F19D80073323F07F
:10377C0007031A465B68114651F8082B0191E0E6E5
:10378C0080B249E70823002537E727F007015B459E
:10379C0089B20091C0F22481F9069DD4390740F119
:1037AC004381AAEB030AD518234693464C462F4671
:1037BC00994605E017F8010DA0470028FFF6B7ADB4
:1037CC00BB454146F6D14B465A46A14635441C46AC
:1037DC00019BAD1A009377E69A4B4DE75A4601F0E0
:1037EC00080081B2002800F08880AAEB0B0A35464D
:1037FC00934687E700918CE54B4604AAB946D2E77D
:10380C0027F01607B9B2009111F0080167D0AAEBA6
:10381C00030A354676E7991C002A56D0AAEB010A12
:10382C00414630200093C8470028FFF680AD009B2E
:10383C00002D48D0284641460093C847002806F181
:10384C000205009BBFF65EAF71E527F01107BBB216
:10385C000093002319469EE617F0080300F08780BA
:10386C00002304AA9FE7504241F48062009207F0C3
:10387C00400263EB4301029279E65FEACC77604643
:10388C0045D58A45AAEB010040F3838003EB000B7E
:10389C001046824690E6064651E5BA0572D55AB2F4
:1038AC0043F3C0134DE653F8042B0193D31748E6AA
:1038BC00009AD0076AD55145AAEB010274DA03EBE2
:1038CC00020BAA46ACE7751C1CE7009AD20775D50B
:1038DC005145AAEB01005FDB82469B46A0E70098AE
:1038EC00C00767D59A45AAEB03000EDD03EB000B6E
:1038FC00002966D04FF0000A92E70098C7076AD5F6
:10390C00D345AAEB0B00F1DB04AA82464BE78A45B0
:10391C007FF750AECDE9023433464C462E468946ED
:10392C000D461F4602E0524508DA15464146202056
:10393C00A047002805F10102F5DAF8E438462F46D5
:10394C00354649460646AAEB020A009AA1460136BC
:10395C00761A3E44D706DDE902343FF561AF1146D5
:10396C0040F2064211427FF427AE3546CAE6BAF160
:10397C00000F5BDD27F017079B46BBB2594600933F
:10398C005B46C7E71AB243F3C033DAE55145C1DBF6
:10399C00ACE69B4682460FE61021A7E7194607F0D6
:1039AC00400310460293E2E592469B4638E72E46CA
:1039BC0004AAF8E69A450ADD1946ABE75145A9DB9E
:1039CC002CE735468A469DE65A468B4609E7AAEB14
:1039DC00030A354696E6D3452ADA5946934699E7C3
:1039EC0075B927F01702380792B200923FF53AAE3C
:1039FC00594600258A458DDCAAEB010A354681E63D
:103A0C00FA061AD538070BF102013FF507AF5145FD
:103A1C0080DBAAEB010A302041460093C8470028FE
:103A2C00009BBFF607AF82E41946E3E704AABAE6A7
:103A3C00AAEB0B0A3546934664E600995A4601F008
:103A4C000800CEE6C8590008704710B5131D50F891
:103A5C00234074B9C368012494402343C3600432E7
:103A6C0040F82210CB001A1D89B281520633C15284
:103A7C0010BDE2000432835A4FEAC10C0CF1040E63
:103A8C0020F80E300CF1060C20F80C40DB0006334D
:103A9C0089B2C1528152EBE708B500EBC1035A88D9
:103AAC005208B2FA82F2C2F11F02FFF7CEFF08BD34
:103ABC0070B50346043AC81D20F007000A4422F0F2
:103ACC000702121AD508186085600023C360B5FA86
:103ADC0085F1C1F1200EC1F124018900CE1DF10840
:103AEC0005E003F1040C002440F82C40013373452D
:103AFC00F7DB1FFA81FE4FEA4E04A4B244804FF06C
:103B0C00000CA0F800C044F0010444806B1A26F0AD
:103B1C000704A51C9BB25E00465320F804E022F07B
:103B2C000704951C20F805C002440353538843F046
:103B3C0001035380FFF7B0FF70BD002070470FB436
:103B4C0000B583B004A951F8040B0191FCF7E8FB14
:103B5C0003B05DF804EB04B07047704738B5054608
:103B6C000C460321A047002806DB01212846A0476C
:103B7C00002800DB002038BD10F1860FFBD1F4E7E4
:103B8C0010B4846891FAA1F39BB1B3FA83F35B0090
:103B9C004FF0030C0CFA03F324EA030391FAA1F19E
:103BAC0049B1B1FA81F149008A401343836010BCDA
:103BBC0070472023EBE72021F5E710B4C46891FA95
:103BCC00A1F39BB1B3FA83F35B004FF0030C0CFA37
:103BDC0003F324EA030391FAA1F149B1B1FA81F19B
:103BEC0049008A401343C36010BC70472023EBE7A5
:103BFC002021F5E708B5FFF7E0FF08BD10B4046A13
:103C0C0091FAA1F39BB1B3FA83F39B004FF00F0C25
:103C1C000CFA03F324EA030391FAA1F149B1B1FAC6
:103C2C0081F189008A401343036210BC7047202342
:103C3C00EBE72021F5E710B4446A090A91FAA1F3E5
:103C4C009BB1B3FA83F39B004FF00F0C0CFA03F308
:103C5C0024EA030491FAA1F149B1B1FA81F1890086
:103C6C008A401443446210BC70472023EBE72021A8
:103C7C00F5E710B4046891FAA1F39BB1B3FA83F39E
:103C8C005B004FF0030C0CFA03F324EA030391FAE4
:103C9C00A1F149B1B1FA81F149008A4013430360A3
:103CAC0010BC70472023EBE72021F5E72DE9F04706
:103CBC000F461646984643685D6801248C4002F016
:103CCC003009C2F3801368686FEA040A20EA040022
:103CDC008B4018436860C2F3C11221462846FFF797
:103CEC004FFFC6F3412221462846FFF783FFB9F167
:103CFC00200F0ED016F4805F19D0EB6A2343EB62D1
:103D0C004FEA191221462846FFF7B3FF0020BDE801
:103D1C00F087072F05D8424621462846FFF76EFF4D
:103D2C00E8E7424621462846FFF785FFE2E7EB6AC3
:103D3C000AEA0303EB62E3E708B5FFF795F808BD61
:103D4C0008B5FCF75DFA08BD08B501460068FCF73C
:103D5C00C5FB08BD08B5FCF7D9FBFCF739FF08BD5E
:103D6C000020704708B500231370CB1E092B1AD8FE
:103D7C00DFE803F005090D11191919191914114669
:103D8C00FCF78AFD12E00021FCF730FC0EE000216C
:103D9C00FCF7A6FC0AE0FCF719FD07E01146FCF75E
:103DAC00D7FD002002E0FCF7DDFD002008BD08B5C2
:103DBC0000B2FCF777FE08BD08B5013100B2FCF784
:103DCC007FFE08BD08B500210120FCF787FB08BD6C
:103DDC00D0F8943083F30B8870476FF085007047F0
:103DEC0061B662B680F31188BFF36F8F704772B6FD
:103DFC00002383F31188BFF36F8FBFF34F8F30BF56
:103E0C0062B6BFF36F8F704740E800F010F4803F4C
:103E1C0001D0C0B270476FF01500704708B50B6841
:103E2C0023F01F0C0B7A03F01F0ECA6822F01F023E
:103E3C005B0942EA430242F001024CEA0E01FCF734
:103E4C007FFF08BD43681F2B08D913F01F0F07D144
:103E5C00036813F01F0F05D0002070470020704737
:103E6C00002070470120704700B585B00A680092A9
:103E7C004B68B1F808E09DF808C06EF3040C8DF89F
:103E8C0008C0B1F80AC09DF808106CF347118DF802
:103E9C00081022F01F021344013B23F01F0303936D
:103EAC006946FCF777FF05B05DF804FB70B5044676
:103EBC000E46FFF7A9FF05463444601EFFF7A4FF2A
:103ECC00854201D1284670BD6FF01505FAE7F0B5B3
:103EDC0087B0054605A8FCF7B5FA0646002442E073
:103EEC00B3F1006F00F0A380B3F1805F3AD1576853
:103EFC00095827F01F0392681344013B23F01F035A
:103F0C00019702919DF80C20012161F304028DF8B8
:103F1C000C20D2B222F0E0028DF80C20049317E0B2
:103F2C005768095827F01F0392681344013B23F08C
:103F3C001F03019702919DF80C20012161F30402EB
:103F4C008DF80C20D2B261F347128DF80C2004933B
:103F5C0001A92878FCF71EFF0028C0F282802B787C
:103F6C0001332B700134B4427ED22001059901EB50
:103F7C000412D3686FF31303B3F1807F3DD0AFD835
:103F8C00B3F5001F06D0B3F5800F1DD0B3F5801F1D
:103F9C00C6D0E7E75768095827F01F039268134407
:103FAC00013B23F01F03019702919DF80C20012186
:103FBC0061F304028DF80C20D2B2022161F3471296
:103FCC008DF80C200493C3E75768095827F01F039A
:103FDC0092681344013B23F01F03019702919DF853
:103FEC000C20062161F304028DF80C20D2B222F0D1
:103FFC00E0028DF80C200493AAE75768095827F0C3
:10400C001F0392681344013B23F01F030197029195
:10401C009DF80C20012161F304028DF80C20D2B222
:10402C00032161F347128DF80C20049390E7576835
:10403C00095827F01F0392681344013B23F01F0318
:10404C00019702919DF80C20012161F304028DF877
:10405C000C20D2B2032161F347128DF80C2004938B
:10406C0076E76FF0150000E0002007B0F0BD08B552
:10407C00FCF76CFF08BD08B5FCF772FF08BD08B56E
:10408C00FCF7F4FF002008BD08B5FDF715F808BDD6
:10409C0008B50B2201210020FDF780F80022114603
:1040AC000B20FFF789FE0C2201210846FDF776F85C
:1040BC00002211460C20FFF77FFE0D220121022069
:1040CC00FDF76CF8002211460D20FFF775FE0E224D
:1040DC0001210320FDF762F8002211460E20FFF7A4
:1040EC006BFE0F2201210420FDF758F80022114627
:1040FC000F20FFF761FE102201210520FDF74EF87D
:10410C00002211461020FFF757FE11220121062034
:10411C00FDF744F8002211461120FFF74DFE122244
:10412C0001210720FDF73AF8002211461220FFF773
:10413C0043FE132201210820FDF730F8002211461E
:10414C001320FFF739FE142201210920FDF726F870
:10415C00002211461420FFF72FFE152201210A2000
:10416C00FDF71CF8002211461520FFF725FE16223C
:10417C0001210B20FDF712F8002211461620FFF743
:10418C001BFE172201210C20FDF708F80022114616
:10419C001720FFF711FE182201210D20FCF7FEFF5E
:1041AC00002211461820FFF707FE192201210E20CC
:1041BC00FCF7F4FF002211461920FFF7FDFD1A222F
:1041CC0001210F20FCF7EAFF002211461A20FFF70D
:1041DC00F3FD002008BD01F01F010120884070474D
:1041EC0008B503460846D90401F4C01141EA93010D
:1041FC00FCF7BEFF08BDB0FBF1F07047B0FBF1F06F
:10420C00D10C52039B1841F10001A0FB033200FBBF
:10421C0001225B0B43EAC2430098B3FBF0F07047FA
:10422C000B88C3F30B0303F67872C2F30B02202A3C
:10423C0015D882B003F1884303F503334A68186834
:10424C0002431A600B88C3F30B0303F1884303F595
:10425C0003331B680193019B002002B070476FF081
:10426C00850070470B88C3F30B0303F67872C2F317
:10427C000B02202A0AD803F1884303F5033349685B
:10428C001A6822EA01021A60002070476FF085005C
:10429C00704708B1002070470120704770B54C681A
:1042AC00C4F304450888C0F30B00FDF7A3FA0028FB
:1042BC0015DBA6B2FF2C13D006F1884202F50332AF
:1042CC00C4F34151013101238B40013BAB40240E1F
:1042DC00AC40116821EA03031C431460002070BD3C
:1042EC000020FCE708B50888C0F30B0000F67873D3
:1042FC00C3F30B03202B0BD800F1884000F50330DF
:10430C0002684B68934301D0012008BD0220FCE7F2
:10431C00FDF770FA08B10120F7E70220F5E70B462C
:10432C0039B11168196041688A4209D000231360C1
:10433C0070471368036041688A42F7D14360F5E720
:10434C004360F3E708B50A460368002101E019460B
:10435C001B682BB19342FAD1FFF7E1FF012000E07B
:10436C00002008BD70B504460D461646036833B1EF
:10437C00FFF7E8FF70B91EB96FF0150006E032B117
:10438C0023682B602560636843B1002070BD6FF01B
:10439C001500FBE7002EF3D10020F7E76560002045
:1043AC00F4E770B50E461546016821B10C683CB1B6
:1043BC0031B90C4604E00C4602E0234621461C466B
:1043CC0071B18A682A4002D04B6830469847002C5D
:1043DC00F3D02368002BF1D0002CEFD12346EDE76E
:1043EC0070BD08B5024608690830FFF7DAFF08BD52
:1043FC0010F4003F14D010F0020F04D010F0040F92
:10440C0034D0502300E0102310F0100F02D043F4EE
:10441C00007312E010F0200F0FD043F480630CE017
:10442C0010F4803F08D010F0100F14D110F02003BE
:10443C0003D04FF4806300E0302300F4C060B0F58B
:10444C00806F10D0B0F5C06F08D0B0F5007F07D1E9
:10445C0043F0800304E04FF40073EEE743F4C073C1
:10446C000B600020704743F48073F9E76FF0850010
:10447C00704743685B681B690B600020704743689A
:10448C005B68586942400A4042405A6100207047BC
:10449C0043685B6899610020704743685B68996268
:1044AC000020704743685B685A695140596100208D
:1044BC00704708B500690830FFF754FF08BD38B5E0
:1044CC0004460D460846FCF727FFA04200D038BD35
:1044DC0029462046FFF77FFE0446FCF7AFFE204638
:1044EC00FCF708FF00212046FCF7B2FEEFE72DE9B0
:1044FC00F04383B005460E461446D0F8108001A94F
:10450C001046FFF775FF074668BB14F4403914D00A
:10451C00D8F8043023FA06F212F0010F04D101226C
:10452C00B2401343C8F8043014F4003F05D014F41F
:10453C00002F1CD114F4802F1FD10023019A314677
:10454C002846FFF7B3FBB9F1000F0CD1D8F80430B3
:10455C0023FA06F212F0010F05D00122B24023EA31
:10456C000203C8F80430384603B0BDE8F0830121DB
:10457C00B1402846FFF78CFFDFE70121B140284608
:10458C00FFF78BFFD9E700B50368136001E0083330
:10459C001360136890F804C0D0F800E00EEBCC0C5C
:1045AC00634505D293F805C08C45F0D1002001E09D
:1045BC006FF001005DF804FB2DE9F84F80468A4648
:1045CC00002426461AE005F01F02102A25D0112AD5
:1045DC0021D0C5F34420FBF711FF814690B3C5F3FE
:1045EC00431B05F01F073B4632465946FFF75EFB5F
:1045FC00002825DB112F12D00134E4B254451ED211
:10460C0008EBC40358F8345015F0100FDBD15E687A
:10461C0046F02006DDE75E68DBE73026D9E7D9F8FF
:10462C0004305B6816F4006F04D0012202FA0BF21E
:10463C009A61E1E7012202FA0BF29A62DCE70020B0
:10464C00BDE8F88F6FF01200FAE743681868C1F301
:10465C004B1301F01F01C358012000FA01F10B406C
:10466C00003B18BF012313700020704710B443683F
:10467C001C68C1F34B1001F01F01235801228A4022
:10468C0013432350002010BC704710B443681C68BF
:10469C00C1F34B1001F01F01235801228A4023EA79
:1046AC0002032350002010BC704738B504460D4659
:1046BC00FFF7DCFF29462046FFF7E7FF002038BD57
:1046CC0008B58368DB680BB1984708BD6FF05700DD
:1046DC00FBE730B583B043681C68E1B10D46586800
:1046EC0019698368DB689BB101AA984700280DDB28
:1046FC00236823F400432360019B03EB5503B3FBB6
:10470C00F5F30F2B0AD99BB2E360002003B030BD48
:10471C006FF05700FAE76FF01500F7E76FF0150030
:10472C00F4E7436829B11A68936843F480439360B3
:10473C0070471A68936823F4804393607047B0F510
:10474C00805F07D0B0F1805F07D109B101207047BD
:10475C000220704721B90420704719B90320704713
:10476C0003207047022070472DE9F04104460D46A6
:10477C00476803691E680979012904D002290DD103
:10478C004FF4806301E04FF4C0636A79012A07D0CB
:10479C00022A07D092B94FF4805205E00023F4E7C7
:1047AC00002201E04FF44052A879022809D00428D5
:1047BC000ED000295ED14FF0000C0BE04FF40052EC
:1047CC00F2E711B14FF0000C04E04FF0805C01E017
:1047DC004FF4805CE97901294FD00020032914BFE4
:1047EC0000210121AE424BD0D7F80080D8F80070E0
:1047FC0007F4C06E734506D0D8F8007027F4C06774
:10480C003B43C8F8003063681F687B6803F440536F
:10481C009A4204D07B6823F440531A437A6063684D
:10482C001A68136803F010239C4505D0136823F015
:10483C0010234CEA0303136063681A68936803F44B
:10484C004073984204D0936823F4407303439360FD
:10485C0063681B689B6813F4804300D0012303F04A
:10486C00010399422AD12968336899422AD1002040
:10487C00BDE8F0814FF4805CACE74FF44070ADE7DD
:10488C003E68316821F0805121F4B05143EA0C03A9
:10489C0019433160736823F44053134373606368A6
:1048AC001A68936823F44073034393602968204685
:1048BC00FFF70FFF0028DBDB0020D9E72046FFF7CE
:1048CC0030FFD0E72046FFF704FF0028D0DB2B6831
:1048DC0033600020CCE738B504460D4603691B68ED
:1048EC001B680B6043681B681B6803F4C063B3F55B
:1048FC00806F04D0B3F5C06F11D1012300E0022307
:10490C002B7163681B685B6803F44053B3F5805FDD
:10491C0007D0B3F5405F06D033BB012304E000237E
:10492C00EEE7002300E002236B7163681B681868D4
:10493C00196801F4C06100F01020FFF700FFA871A6
:10494C0063681B689B6803F44073B3F5407F0DD01C
:10495C000023EB7163681B689B6813F4804F01D0D4
:10496C000323EB71002038BD0323DDE70123F0E7BF
:10497C0008B543681868C36913F0080F01D0082301
:10498C000362C36913F0200F02D09047002008BDCA
:10499C004FF0FF30FBE710B543681868C36913F09C
:1049AC00800FFBD0EFF31184102383F31288BFF335
:1049BC006F8FC36913F0800F04D184F31188BFF398
:1049CC006F8FEBE7904784F31188BFF36F8F10BDA7
:1049DC00436A0B707047C9B28162704743681B68A9
:1049EC00D86910F0080000D00120DA6912F0010F2C
:1049FC0001D040F00200DA6912F0020F01D040F051
:104A0C000400DA6912F0040F01D040F02000DA69DA
:104A1C0012F4807F03D110F0080F02D104E040F0B3
:104A2C0008004FF480721A6210F0010F01D00822B6
:104A3C001A6210F0020F01D001221A6210F0040F5A
:104A4C0001D002221A6210F0200F01D004221A6247
:104A5C00704708B543685868196983681B680BB1BF
:104A6C00984708BD6FF05700FBE700B583B001AA6B
:104A7C00FFF789FD002805DB019B002219791868D6
:104A8C00FFF79AFD03B05DF804FB38B504464568A2
:104A9C00FFF7DFFF00280BDB0021686AFFF7E5FF5B
:104AAC00002805DB2046FDF7A1F8002800DB0020DC
:104ABC0038BD10B50446436993B19847024630B1EE
:104ACC0000280BDBFF2A00DDFF22E3681A70E16887
:104ADC004B7843F001034B70504210BD4242F1E75A
:104AEC000022F4E760B1C3685A7812F0010F03D0CA
:104AFC001B781BB1002070470020704701207047C5
:104B0C0000207047EFF31183102383F31288BFF357
:104B1C006F8FFEE708B5FFF7F5FF08B5EFF31183CC
:104B2C00102383F31288BFF36F8FFFF760F9F5E75B
:104B3C0000BF7047F8B505460E46D41D24F0070497
:104B4C000F193946FBF7FAFC073020F00700C5F8BF
:104B5C009460C5F89840C5F89C00381AF8BD10B49C
:104B6C0000248460838102748173C4738461C46182
:104B7C0010BC70470020704738B504460D46FDF751
:104B8C006BFD237C43F00203237425B3A5602B68D3
:104B9C009D4207D1002305E019466A68934215D05F
:104BAC001B687BB993B194F90E1093F90E209142C6
:104BBC00F2D0521A002AEFDD5A686260236014604A
:104BCC005C6008E00029EDD10B46EBE76B682560D3
:104BDC0063601C606C6038BD70B506460468844226
:104BEC001AD0DCB16268236813605A600025256016
:104BFC006560237C23F002032374A56004F1180084
:104C0C0000F08FF8C4F8AC502046FDF7CDFC3468AA
:104C1C00A642E6D10024E4E70024E2E770BD38B5F3
:104C2C0004460023EFF31185102282F31288BFF3A0
:104C3C006F8F04E085F31188BFF36F8F012343B9A5
:104C4C002046FFF797FF0028F4D12046FDF7ACFC77
:104C5C00F0E738BD08B5037C13F0280F13D1836837
:104C6C005BB14268036813605A60002303604360C1
:104C7C00027C22F0020202748360037C23F00403A2
:104C8C000374FDF791FC08BD38B5A0F1180500239D
:104C9C00EFF31184102282F31288BFF36F8F07E0B9
:104CAC002846FFF7D7FF84F31188BFF36F8F0123DA
:104CBC00002BF5D038BD031D43608360704710B5E1
:104CCC000446FDF7B5FF48B1024603694169206906
:104CDC001B18606941EB0001136151616268236824
:104CEC0013605A6000232360636010BD10B5044646
:104CFC00FDF794FF78B1036942691B1B62EBE47208
:104D0C00B3F1004F72F1000108DA002A01DB1846FA
:104D1C0010BD0023FBE76FF00040F9E76FF0004097
:104D2C00F6E72DE9F04105460024EFF31187102337
:104D3C0083F31288BFF36F8F6FF015000CE0FDF753
:104D4C0083FFFFF7D3FF0021FDF7B2F8404687F34E
:104D5C001188BFF36F8F0124A0468CB92B68002BF0
:104D6C00F5D0FDF75BFF06462846FFF7A8FF0022AB
:104D7C004FF00043C5E90423AE42E0D02046E6E7FD
:044D8C00BDE8F0810D
:104D900000000000284E00089103000800000000F9
:104DA00000000000444E0008000000005C4F0008B6
:104DB00000000000404F000800000000244F0008E1
:104DC00000000000084F000800000000EC4E000842
:104DD00000000000D04E000800000000B44E0008A3
:104DE00000000000984E0008000000007C4E000803
:104DF00000000000604E00089D4000080000000018
:104E000000000000944F000800000000784F0008E8
:104E10006518000800000000211E000800000000C6
:084E2000A110000800000000D1
:104E280048590008000000007C530008700000206A
:104E3800000000006517000800000000585900082D
:104E48006C5B00086C530008720000200000000032
:104E5800000000000000000028540008D85900088D
:104E6800485300085C000020B8020020F90300083D
:104E78000000000038540008EC59000848530008A6
:104E88005E000020C8020020F903000800000000AE
:104E980048540008005A00084853000860000020E1
:104EA800D8020020F9030008000000005854000848
:104EB800145A00084853000862000020E802002045
:104EC800F90300080000000068540008285A000888
:104ED8004853000864000020F8020020F903000885
:104EE80000000000785400083C5A000848530008A5
:104EF8006600002008030020F903000800000000F5
:104F080088540008505A00084853000868000020D8
:104F180018030020F9030008000000009854000856
:104F2800645A0008485300086A000020280300203B
:104F3800F903000800000000A8540008785A000887
:104F4800485300086C00002038030020F9030008CB
:104F580000000000285900080000000000000000C0
:104F68006E000020000000009540000800000000CE
:104F78006C590008705B0008985300087400002002
:104F880034000020974A0008000000007C590008FF
:104F9800C05B0008985300087600002040000020FD
:084FA800974A00080000000018
:104FB00000000000D13D000800000000D13D0008C5
:104FC00000000000D13D000800000000D13D0008B5
:104FD00000000000D13D000800000000D13D0008A5
:104FE00000000000D13D000800000000D13D000895
:104FF00000000000D13D000800000000D13D000885
:1050000000000000D13D0008685B0008CD110008D9
:10501000645B0008CD110008605B0008CD1100083A
:105020005C5B0008CD110008585B0008CD1100083A
:10503000545B0008CD110008505B0008CD1100083A
:105040004C5B0008CD110008485B0008CD1100083A
:10505000445B0008CD110008405B0008CD1100083A
:105060003C5B0008CD110008385B0008CD1100083A
:10507000345B0008CD110008305B0008CD1100083A
:105080002C5B0008CD11000800000000D13D000895
:1050900000000000D13D000800000000D13D0008E4
:1050A00000000000D13D000800000000D13D0008D4
:1050B00000000000D13D000800000000D13D0008C4
:1050C00000000000D13D000800000000D13D0008B4
:1050D00000000000D13D000800000000D13D0008A4
:1050E00000000000D13D000800000000D13D000894
:1050F00000000000D13D000800000000D13D000884
:1051000000000000D13D000800000000D13D000873
:1051100000000000D13D000800000000D13D000863
:1051200000000000D13D000800000000D13D000853
:1051300000000000D13D000800000000D13D000843
:1051400000000000D13D000800000000D13D000833
:1051500000000000D13D000800000000D13D000823
:1051600000000000D13D000800000000D13D000813
:1051700000000000D13D000800000000D13D000803
:1051800000000000D13D000800000000D13D0008F3
:1051900000000000D13D000800000000D13D0008E3
:1051A00000000000D13D000800000000D13D0008D3
:1051B00000000000D13D000800000000D13D0008C3
:1051C00000000000D13D000800000000D13D0008B3
:1051D00000000000D13D000800000000D13D0008A3
:1051E00000000000D13D000800000000D13D000893
:1051F00000000000D13D000800000000D13D000883
:1052000000000000D13D000800000000D13D000872
:1052100000000000D13D000800000000D13D000862
:1052200000000000D13D000800000000D13D000852
:1052300000000000D13D000800000000D13D000842
:1052400000000000D13D000800000000D13D000832
:1052500000000000D13D000800000000D13D000822
:1052600000000000D13D000800000000D13D000812
:1052700000000000D13D000800000000D13D000802
:1052800000000000D13D000800000000D13D0008F2
:1052900000000000D13D000800000000D13D0008E2
:1052A00000000000D13D000800000000D13D0008D2
:1052B00000000000D13D000800000000D13D0008C2
:1052C00000000000D13D000800000000D13D0008B2
:1052D00000000000D13D000800000000D13D0008A2
:1052E00000000000D13D000800000000D13D000892
:1052F00000000000D13D000800000000D13D000882
:1053000000000000D13D000800000000D13D000871
:1053100000000000D13D000800000000D13D000861
:1053200000000000D13D000800000000D13D000851
:1053300000000000D13D000800000000D13D000841
:0853400000000000D13D00084F
:10534800FB4400087F4400088B4400089D44000883
:10535800A7440008B144000881180008BF440008A9
:045368000000000041
:10536C00574600087946000897460008B7460008DB
:10537C002D4200087142000800000000C113000813
:0C538C00F142000800000000A9420008E7
:10539800D91B0008E91B0008E9490008151900088D
:0453A800E3480008CE
:1053AC00040000000F0000000100000008000000D5
:1053BC0020000000600000007000000010000000E1
:1053CC000C0000000E0000005000000074000000F3
:1053DC00A8000000FFFFFFFFFFFFFFFFFFFFFFFF25
:0453EC00FFFFFFFFC1
:1053F000A8000000020000007877696E675F64759E
:105400006D6265722F73746D333268353633787818
:105410000000000048656C6C6F20576F726C64214F
:105420002025730A000000006770696F4034323035
:1054300032323030300000006770696F40343230F3
:1054400032316330300000006770696F40343230B1
:1054500032313830300000006770696F40343230CC
:1054600032313430300000006770696F40343230C0
:1054700032313030300000006770696F40343230B4
:1054800032306330300000006770696F4034323072
:1054900032303830300000006770696F403432308D
:1054A00032303430300000006770696F4034323081
:1054B000323030303000000072302F61313A20201D
:1054C000307825303878202072312F61323A202010
:1054D000307825303878202072322F61333A2020FE
:1054E0003078253038780A0072332F61343A202022
:1054F000307825303878207231322F69703A202088
:10550000307825303878207231342F6C723A202070
:105510003078253038780A0020787073723A20206D
:105520003078253038780A004661756C74696E678A
:1055300020696E737472756374696F6E2061646440
:105540007265737320287231352F7063293A2030C9
:1055500078253038780A0000556E68616E646C6595
:1055600064204952516E3A2025640A005350534535
:105570004C20696E20746872656164206D6F64658B
:1055800020646F6573206E6F7420696E6469636157
:105590007465205053500A002A2A2A2A2A204D5086
:1055A00055204641554C54202A2A2A2A2A0A00000E
:1055B0002020537461636B696E67206572726F722D
:1055C0002028636F6E746578742061726561206D48
:1055D00069676874206265206E6F742076616C69FB
:1055E00064290A002020556E737461636B696E67CD
:1055F000206572726F720A0020204461746120413C
:1056000063636573732056696F6C6174696F6E0AAA
:105610000000000020204D4D46415220416464723C
:105620006573733A20307825780A00002020496E8F
:10563000737472756374696F6E204163636573730D
:105640002056696F6C6174696F6E0A002020466C89
:105650006F6174696E672D706F696E74206C617A0A
:1056600079207374617465207072657365727661F8
:1056700074696F6E206572726F720A002A2A2A2A74
:105680002A20425553204641554C54202A2A2A2A82
:105690002A0A00002020537461636B696E672065DD
:1056A00072726F720A000000202050726563697385
:1056B00065206461746120627573206572726F7217
:1056C0000A00000020204246415220416464726575
:1056D00073733A20307825780A0000002020496D45
:1056E00070726563697365206461746120627573AB
:1056F000206572726F720A002020496E7374727591
:105700006374696F6E20627573206572726F720ABE
:10571000000000002A2A2A2A2A2055534147452002
:105720004641554C54202A2A2A2A2A0A0000000001
:1057300020204469766973696F6E206279207A65EA
:10574000726F0A002020556E616C69676E65642077
:105750006D656D6F7279206163636573730A000014
:105760002020537461636B206F766572666C6F776F
:105770002028636F6E746578742061726561206E95
:105780006F742076616C6964290A000020204E6FD6
:1057900020636F70726F636573736F7220696E73CD
:1057A0007472756374696F6E730A00002020496C0F
:1057B0006C6567616C206C6F6164206F6620455872
:1057C000435F52455455524E20696E746F205043CA
:1057D0000A0000002020496C6C6567616C207573BD
:1057E00065206F662074686520455053520A00009A
:1057F0002020417474656D707420746F2065786525
:105800006375746520756E646566696E656420698C
:105810006E737472756374696F6E0A002A2A2A2A7D
:105820002A2048415244204641554C54202A2A2AD5
:105830002A2A0A002020427573206661756C742044
:105840006F6E20766563746F72207461626C652080
:10585000726561640A00000020204465627567205B
:105860006576656E740A000020204661756C7420B0
:10587000657363616C6174696F6E20287365652060
:1058800062656C6F77290A00415243485F4558436F
:10589000455054207769746820726561736F6E207B
:1058A00025780A0A000000002A2A2A2A2A204465AC
:1058B000627567206D6F6E69746F722065786365BD
:1058C0007074696F6E202A2A2A2A2A0A00000000B2
:1058D0005265736572766564204578636570746996
:1058E0006F6E20280000000053707572696F757329
:1058F00020696E7465727275707420284952512047
:10590000000000002A2A2A2A2A202573202564293B
:10591000202A2A2A2A2A0A00464C4153485F30008E
:105920005352414D5F300000696E7465727275703C
:10593000742D636F6E74726F6C6C657240343430AA
:105940003232303030000000726363403434303221
:10595000306330300000000072657365742D636F32
:105960006E74726F6C6C6572000000007365726912
:10597000616C4034303030346330300073657269AC
:10598000616C4034303030343830300069646C65DC
:10599000000000006D61696E000000002A2A2A20C4
:1059A000426F6F74696E67205A6570687972204F14
:1059B00053206275696C642076342E342E302D723B
:1059C0006331202A2A2A0A00286E756C6C2900008F
:1059D0002A666C6F61742A00FFFF000000200242FB
:1059E000080000008C00000000010000FFFF000024
:1059F000001C0242070000008C0000008000000034
:105A0000FFFF000000180242060000008C000000AA
:105A100040000000FFFF00000014024205000000EB
:105A20008C00000020000000FFFF00000010024278
:105A3000040000008C00000010000000FFFF0000C8
:105A4000000C0242030000008C000000080000006F
:105A5000FFFF000000080242020000008C0000006E
:105A600004000000FFFF00000004024201000000EB
:105A70008C00000002000000FFFF00000000024256
:105A8000000000008C00000001000000404F0008F2
:105A9000244F0008084F0008EC4E0008D04E0008C4
:105AA000B44E0008984E00087C4E0008604E000876
:105AB00000000000000000000000000000000000E6
