:020000040800F2
:1000000078110020150E000801440008010E0008B8
:10001000010E0008010E0008010E0008010E000884
:10002000000000000000000000000000550E000865
:10003000010E000800000000F90F0008F524000878
:1000400095100008951000089510000895100008FC
:1000500095100008951000089510000895100008EC
:1000600095100008951000089510000895100008DC
:1000700095100008951000089510000895100008CC
:1000800095100008951000089510000895100008BC
:1000900095100008951000089510000895100008AC
:1000A000951000089510000895100008951000089C
:1000B000951000089510000895100008951000088C
:1000C000951000089510000895100008951000087C
:1000D000951000089510000895100008951000086C
:1000E000951000089510000895100008951000085C
:1000F000951000089510000895100008951000084C
:10010000951000089510000895100008951000083B
:10011000951000089510000895100008951000082B
:10012000951000089510000895100008951000081B
:10013000951000089510000895100008951000080B
:1001400095100008951000089510000895100008FB
:1001500095100008951000089510000895100008EB
:1001600095100008951000089510000895100008DB
:1001700095100008951000089510000895100008CB
:1001800095100008951000089510000895100008BB
:1001900095100008951000089510000895100008AB
:1001A000951000089510000895100008951000089B
:1001B000951000089510000895100008951000088B
:1001C000951000089510000895100008951000087B
:1001D000951000089510000895100008951000086B
:1001E000951000089510000895100008951000085B
:1001F000951000089510000895100008951000084B
:10020000951000089510000895100008951000083A
:10021000951000089510000895100008951000082A
:10022000951000089510000895100008951000081A
:10023000951000089510000895100008951000080A
:04024000951000080D
:10024400844641EA000313F0030349D1403A23D31F
:100254000B6803604B6843608B688360CB68C36042
:100264000B6903614B6943618B698361CB69C3612A
:100274000B6A03624B6A43628B6A8362CB6AC36212
:100284000B6B03634B6B43638B6B8363CB6BC363FA
:1002940040304031403ADBD230320BD30B6803603C
:1002A4004B6843608B688360CB68C3601030103147
:1002B400103AF3D20C3205D351F8043B40F8043B16
:1002C400043AF9D2043208D0D2071CBF11F8013B1A
:1002D40000F8013B01D30B8803806046704700BFE0
:1002E400082A13D38B07B1D010F00303AED0C3F1A7
:1002F4000403D21ADB071CBF11F8013B00F8013BD1
:10030400A4D331F8023B20F8023B9FE7043AD9D347
:10031400013A11F8013B00F8013BF9D20B78037064
:100324004B7843708B7883706046704753B94AB9F1
:10033400002908BF00281CBF4FF0FF314FF0FF30E9
:1003440000F00CB8ADF1080C6DE904CE00F008F82B
:10035400DDF804E0DDE9022304B07047704700BF14
:100364002DE9F0478C468E46089E154604461946EC
:10037400002B40F0D080724547D9B2FA82F74FB1D2
:10038400C7F120030EFA07FCBD40BC4020FA03F37A
:1003940043EA0C0C4FEA154EA8B2230CBCFBFEF842
:1003A4000EFB18CC08FB00F943EA0C43994528D905
:1003B400EB1808F1FF3204D2994502D9A8F10202E0
:1003C4002B44A3EB0903A4B2B3FBFEFC0EFB1C33CA
:1003D4000CFB00F044EA0344A04214D92C190CF19C
:1003E400FF3304D2A04202D9ACF102032C44241AF4
:1003F40043EA02401EB1FC40002334607360BDE850
:10040400F0874246DDE76346F1E7002A79D0B2FA85
:1004140082F3002B3FD01946C1F1200302FA01F503
:1004240000FA01F42EFA03F20EFA01FE20FA03F3A5
:10043400AFB243EA0E034FEA154EB2FBFEFC0EFBCD
:100444001C201A0C0CFB07F842EA004290455AD9CA
:10045400AA180CF1FF3004D2904502D9ACF1020085
:100464002A44A2EB08029BB2B2FBFEFC0EFB1C2248
:100474000CFB07F743EA02439F4246D9EB180CF101
:10048400FF3204D29F4202D9ACF102022B44DB1B9F
:1004940042EA004202E0AEEB020301224FEA154EAB
:1004A400AFB2200CB3FBFEFC0EFB1C330CFB07F8B5
:1004B40040EA034398452AD9EB180CF1FF3004D2E3
:1004C400984502D9ACF102002B44A3EB0803A4B273
:1004D400B3FBFEFC0EFB1C330CFB07F744EA03449E
:1004E400A74216D92C190CF1FF3304D2A74202D922
:1004F400ACF102032C44E41B43EA00400F461146CE
:1005040078E71F2188E76046ABE76246BFE76046AD
:10051400DBE76346EFE7734506D916B900210846C1
:100524006DE7C6E9000EF9E7B3FA83F787B97345B7
:1005340001D3824207D8841A6EEB030301209C4640
:100544001EB900215BE73846FAE7C6E9004CF8E734
:10055400C7F1200CBB4000FA07F422FA0CF520FA8C
:100564000CF1BA401D432EFA0CF30EFA07FE4FEAC3
:10057400154941EA0E011FFA85FEB3FBF9F809FBA0
:1005840018300B0C08FB0EFA43EA00439A4540D995
:10059400EB1808F1FF3004D29A4502D9A8F1020001
:1005A4002B44A3EB0A0389B2B3FBF9F809FB183314
:1005B40008FB0EFE41EA03418E452CD9691808F167
:1005C400FF3304D28E4502D9A8F10203294443EA39
:1005D4000040A1EB0E01A0FB02984145CE464346E4
:1005E40002D306D14C4504D20138B9EB020E68EBB4
:1005F4000503002EA5D0B4EB0E0261EB030101FA52
:100604000CFC22FA07F3F9404CEA0303C6E9003173
:1006140097E74046C5E74346D9E7000008B50349D4
:10062400034803F00BF8002008BD00BF645B00081A
:10063400805B000808B5024B1B68984708BD00BFE3
:1006440000000020014B1860704700BF000000202C
:1006540000B585B084460A4668460023009301939A
:100664000293039302238DF80230044B01936146F5
:1006740003F07EF805B05DF804FB00BF39060008FE
:1006840080B505460E461746984602F0B5FC03466B
:1006940000F00EFD0446DFF8189049F80030424699
:1006A40039463046A84754F8090000F089FC00BFD9
:1006B40008000000034A536823F00203536000203B
:1006C400704700BF0040024408B50B4641680C3136
:1006D400012B14D00AD833B90F4B9B685B68C3B1A4
:1006E4000D48984707E06FF0850004E0023BDBB259
:1006F400012B01D8002008BD6FF08500FBE7064BF5
:100704009B681B6813B104489847F4E76FF05700DF
:10071400F1E76FF05700EEE72455000808B50249E9
:1007240003F070FD08BD00BFCD06000810B5192800
:1007340008D8064B53F82040204604F051FD18B168
:10074400204610BD0024FBE70024F9E7F861000807
:10075400EFF31181102383F31288BFF36F8F0C4BD7
:100764001A686AB90B48436A43F00103436200E024
:1007740033B9084B5B6A13F00103F9D00123F7E79F
:100784000132034B1A6081F31188BFF36F8F7047F6
:100794004C03002000080244EFF31182102383F37A
:1007A4001288BFF36F8F0F4B1B685BB90E4B01218F
:1007B400D3E8EF0F00280AD1C3E8EC1FBCF1000F07
:1007C40005D0F5E7012B07D0013B06490B6082F306
:1007D4001188BFF36F8F70470448416A21F001010B
:1007E4004162F1E74C030020480300200008024462
:1007F40008B500F08BFF044B044A1A60044AD36A1C
:1008040043F00103D36208BD4C0000200048E80116
:1008140000080244014B0360002070476062000836
:1008240008B50348034A121A002103F0D9FD08BD94
:10083400780000203804002008B50648064A121A39
:10084400064903F0D1FD0648064A121A064903F088
:10085400CBFD08BD0000002078000020C463000820
:100864000000002000000020C463000810B5044606
:10087400836842680168094803F0B5FC636922692A
:10088400E168074803F0AFFCE169064803F0ABFCFC
:10089400A169054803F0A7FC10BD00BF245C000853
:1008A400545C0008845C0008945C000838B5044675
:1008B4000D4611B10846FFF7D9FF012C04D0294693
:1008C400204601F0C9FF38BDEFF305811039024815
:1008D40003F089FCF3E700BFC45C000830BFFFF7F6
:1008E400FDBF00BF38B50446054D2A460549FFF74C
:1008F400A7FC054A0021601902F00AFE38BD00BFBA
:10090400000000005C5B00080400000070B50646AF
:10091400064D074B1D444C1B2046FFF7E3FF083CE4
:10092400C6F8A44005F1080070BD00BF0000000037
:10093400040000008169104B5A6942F480725A61C4
:10094400BFF34F8FBFF36F8F31F8021C5A6922F443
:1009540080725A61BFF34F8FBFF36F8F01F47F43EF
:10096400B3F55F4F01D000207047C9B2022901D00E
:10097400002070470120704700ED00E04FF0000CAC
:1009840083F800C002F07F4CBCF17F4F12D102F01B
:100994000C0CBCF1080F04D012F0080F07D0084665
:1009A400704708B5044803F01EFC002008BD01226E
:1009B4001A70704700207047D85C0008F8B50546E7
:1009C4000F461446324803F00EFC324B9B6A13F078
:1009D400100F31D110262F4B9B6A13F0080F30D122
:1009E4002C4B9B6A13F0020F30D12A4B9B6A13F0F5
:1009F400010F43D1274B9B6A13F0200F43D1254BA2
:100A04009B6A13F0100F01D1224B9B6A214B9B6A06
:100A140013F0200F04D01F4A536A23F40053536287
:100A24001C4A936A43F0FF0393620121284603F0B2
:100A3400EBFC20703046F8BD174803F0D4FB1126B8
:100A4400C9E7164803F0CFFB1226C9E7144803F0A0
:100A5400CAFB104B596B9B6A13F0800F01D113260C
:100A6400C3E7104803F0BFFB37B10A4A936A23F087
:100A7400800393621326B8E71326B6E70A4803F007
:100A8400B2FB1426B6E7094803F0ADFB1526B6E71A
:100A9400045D000800ED00E01C5D0008505D0008E6
:100AA400645D0008805D0008985D0008B85D00087A
:100AB400F8B505460F4614462F4803F094FB2F4B18
:100AC4009B6A13F4805F25D116262C4B9B6A13F482
:100AD400006F24D1294B9B6A13F4007F24D1274B48
:100AE4009B6A13F4806F37D1244B9B6A13F4807F85
:100AF40037D1224B9B6A13F4005F37D11F4A936AA4
:100B040043F47F4393620121284603F07DFC207067
:100B14003046F8BD1A4803F066FB1726D5E7194896
:100B240003F061FB1826D5E7174803F05CFB134B71
:100B3400996B9B6A13F4004F01D11926CFE7134830
:100B440003F051FB37B10D4A936A23F400439362D7
:100B54001926C4E71926C2E70D4803F044FB1A26F8
:100B6400C2E70C4803F03FFB1B26C7E70A4803F023
:100B74003AFB1C26C2E700BFE85D000800ED00E078
:100B8400005E0008505D0008145E0008305E000836
:100B9400485E0008645E0008B85D000808B529488E
:100BA40003F021FB284B9B6A13F0007F26D11D2004
:100BB400254B9B6A13F0807F25D1234B9B6A13F44A
:100BC400801F25D1204B9B6A13F4002F25D11E4B87
:100BD4009B6A13F4802F25D11B4B9B6A13F4003FAF
:100BE40025D1194B9B6A13F4803F25D1164A936A89
:100BF4006FEA03436FEA1343936208BD134803F09B
:100C0400F2FA1E20D4E7124803F0EDFA1F20D4E7CD
:100C1400104803F0E8FA0220D4E70F4803F0E3FA9F
:100C24002120D4E70D4803F0DEFA2220D4E70C4853
:100C340003F0D9FA2320D4E70A4803F0D4FA242095
:100C4400D4E700BF805E000800ED00E09C5E000871
:100C5400B05E0008CC5E0008F85E0008185F00086B
:100C6400405F00085C5F000870B506460D462648E4
:100C740003F0B9FA00232B70244BDC6A14F002044D
:100C84000AD1224BDB6A002B0BDB204BDC6A14F00D
:100C940080440AD1204670BD1D4803F0A4FA002404
:100CA400F8E71C4803F09FFAF4E71B4803F09BFAAB
:100CB4003046FFF73FFE98B9144B9B6A13F0FF0FC1
:100CC40014D1124B9C6A14F47F4416D10F4B9B6AC7
:100CD400B3F5803FDED33046FFF760FF0446D9E723
:100CE40031680E4803F07FFA3468D3E72A460121BD
:100CF4003046FFF763FE0446CCE72A46012130461E
:100D0400FFF7D6FE0446C5E7885F000800ED00E063
:100D1400A05F0008C45F0008D45F0008F45F000807
:100D240008B500230B70024803F05DFA08BD00BF4C
:100D34001460000808B50A460F2905DC0349103A77
:100D4400034803F050FA08BD0249F8E73C60000884
:100D5400706000085460000830B58BB01E4B5D68AD
:100D6400C5F30805002383F31188BFF36F8F0DF1DA
:100D74002603FFF703FE04460DF12702294603F07C
:100D840045FB9DF827300BB10BB030BD05460DF186
:100D9400040C20686168A268E368ACE80F0020696D
:100DA4006169A269E369ACE80F009DF826304BB194
:100DB400089BC3F308024AB96FEA53236FEA43233B
:100DC400089303E0089B6FF30803089301A92846DE
:100DD400FFF76CFDD8E700BF00ED00E0064B5A6951
:100DE40042F010025A615A6942F480625A615A69A7
:100DF40022F008025A61704700ED00E0EFF308802A
:100E0400EFF3098101B57246FFF7A6FF01BD00BFEC
:100E14000C4880F3088800200B490870102080F3E8
:100E240011880A484FF40061401880F30988EFF3F1
:100E340014800221084380F31488BFF36F8F00F0FD
:100E440049F80000781100203504002038040020FF
:100E54001EF0040F0CBFEFF30880EFF309808169E3
:100E640011F8021C0229FFD001B5724603F0C0FA42
:100E740001BD00BF002807DB00F01F024009012369
:100E84009340024A42F82030704700BF00E100E07E
:100E9400002808DB0901C9B200F1604000F5614097
:100EA40080F80013704700F00F000901C9B2014B2C
:100EB4001954704714ED00E0044B23F07F03044AF7
:100EC4009360BFF34F8FBFF36F8F7047000000082C
:100ED40000ED00E008B5FFF7EFFF0B4AD2F88830C9
:100EE40023F47003C2F88830EFF3148323F004036F
:100EF40083F31488BFF36F8FFFF792FCFFF79CFC1A
:100F040000F0ACF801F0C2FD00ED00E010B4A2F175
:100F140020040E4942F8081C21F0010142F8081C83
:100F240042F8203C019B42F81C3C029B42F8183CCE
:100F3400039B42F8143C4FF0807342F8043C046570
:100F44000023C0F8A83010BC704700BF8506000815
:100F540000B50E4615460D4B9860D0F8A4200C4BF6
:100F64001A60D0F8943083F30B882C4686F30988F2
:100F74000020044B98472046002100220023024C05
:100F8400204700008D440008850600080004002066
:100F940050030020014B10221A61704700ED00E05D
:100FA400054B5A699B689A4204D0044A536843F03B
:100FB40080535360704700BF0004002000ED00E040
:100FC40008B50A4B9B68834202D002F01BF808BDA7
:100FD400EFF30583002BF8D0054B5A6842F080529A
:100FE4005A605A6A22F400425A62EEE70004002072
:100FF40000ED00E016498A684FF030001044EFF32A
:10100400098C80E8F01F102080F31288BFF36F8FE3
:10101400104F4FF000664A698A603E60D2F8A4001F
:101024000D4C2060D2F8A8000023C2F8A83080F349
:10103400118802F1300090E8F01F8CF3098802F166
:10104400000004B503F018FABDE80440704700003E
:101054000004002004ED00E050030020002206E01C
:1010640003F00F030949194410230B760132802A37
:101074000ADC13B2002BF3DB03F1604303F5614395
:10108400102183F80013F1E7704700BFFCEC00E087
:1010940008B5EFF30583103B044A02EBC30149682A
:1010A40052F833008847FFF77BFF08BDAC560008B1
:1010B40001480068704700005003002010B584B058
:1010C4000A4C23460A4A01210A4803F024FB01A8DA
:1010D4000023019343608360074B0193E41A029455
:1010E400012103F01CFB04B010BD00BF000004206C
:1010F400000000206062000878000020024B034AD0
:10110400C3F8C020704700BF00ED00E0AAFF440010
:10111400034BC3F89800C3F89C10C3F8A020704791
:1011240000ED00E00E4BC3F89800C3F89800D3F824
:101134009C000A7A60F304020A72D3F8A020C2F376
:101144004202087A62F347100872D3F89C2022F016
:101154001F020A60D3F8A03023F01F03CB6070474E
:1011640000ED00E0084BD3F89030C3F30723013BB4
:10117400984205D810B5044603F0A4F9204610BDE2
:101184006FF01500704700BF00ED00E02DE9F04F4F
:1011940087B08146009101931446002735E0C3458A
:1011A40066D12946C0B203F0B3F92DE05A4AC2F819
:1011B4009860D2F89C3003F01F0321F01F010B4309
:1011C400C2F89C302946E0B203F0A2F9044610F1BB
:1011D400160F00F09A80013416E0013B4E49C1F825
:1011E4009860D1F8A02002F01F0223F01F031343DC
:1011F400C1F8A0302946E0B203F08AF9044610F1A0
:10120400160F00F0828001340137009B9F427CDA84
:1012140007EB47054FEA850A09EB85056E68002E42
:10122400F2D0019B23B1284603F060F9002868D06E
:10123400314659F80A0003F08DF9064610F1160FED
:1012440062D0844265DD344BC3F89800D3F89C2007
:1012540022F01F02C3F89800D3F8A03043F01F080F
:1012640059F80A306968194401F1FF3B934296D05A
:1012740093429BD0C345B0D0013B2749C1F8986045
:10128400D1F8A02002F01F0223F01F031343C1F87A
:10129400A0302946E0B203F03BF9044610F1160FE2
:1012A40033D001301C4BC3F89860D3F89C109DF8E0
:1012B400102061F304028DF81020D3F8A030C3F39A
:1012C4004203D2B263F347128DF8102059F80A2072
:1012D4006B681A44029259F80A20134423F01F033E
:1012E400A8EB0B084344013B23F01F03059302A919
:1012F400C0B2FFF737FF044610F1160F05D00134D2
:1013040082E76FF0150400E00446204607B0BDE80C
:10131400F08F6FF01504F8E700ED00E010B5034C12
:1013240001232278FFF732FF207010BD340400201F
:1013340070B505460E46002400E00134A6421EDDC9
:1013440004EB44039A0005EB830359680029F4D0A5
:10135400A85803F0FFF804EB84030B4A42F8230077
:1013640010F1160F0CD0094B1B78984209DA04EBE4
:10137400840302EB83010431FFF7D4FEDDE7002090
:1013840070BD6FF01500FBE7540300203404002007
:10139400044B0522C3F89420BFF34F8FBFF36F8F24
:1013A400704700BF00ED00E0BFF35F8F024B0022E7
:1013B400C3F89420704700BF00ED00E038B51C4B23
:1013C4001D681C4BD3F89030C3F307239D422BD8E0
:1013D400FFF7EAFFFFF792FE002407E0144B596879
:1013E40001EB0411204603F06DF80134A542F5D851
:1013F4001148057003F0BFF810F1160F13D00E4B0F
:101404001A780C4BD3F89030C3F307239A4207DAC7
:10141400084BC3F898200021C3F8A0100132F0E76C
:10142400FFF7B6FF002038BD4FF0FF30FBE700BFE9
:101434006C62000800ED00E03404002008B5024BA3
:101444001B689847002008BD68030020034B186000
:10145400034A937843F002039370704768030020B3
:101464000400002008B5064921F00701C1F100522B
:1014740002F58022034802F06FFE002008BD00BF81
:101484007F1100206C03002000B583B0094B93E862
:10149400030002AB03E90300074B9B681B682BB1F5
:1014A40069460548984703B05DF804FB6FF05700A0
:1014B400F9E700BF5C5B00082455000800F01F0238
:1014C400012393403F281FD81F280ED80F4AD26803
:1014D40033EA020205D00D4A1269934303D0002077
:1014E40070470120704701207047084AD26A33EAE6
:1014F400020205D0054A126B934303D000207047C3
:1015040001207047012070470020704700200244EA
:1015140000F01F02012393403F280BD81F2804D852
:10152400064AD360136100207047044AD3621363F0
:10153400002070476FF01500704700BF0020024480
:1015440010B401F00302084C183254F82230090C8C
:101554004FF00F0C0CFA01FC23EA0C038840034300
:1015640044F8223010BC7047002002440023994202
:101574000ADD10B400EB030C044C24F81C200133E6
:101584009942F7DC10BC7047704700BF140000207C
:10159400F8B50746002401E00134E4B27B78A342A5
:1015A40017D93D7866193046FFF788FF0028F3D035
:1015B4003046FFF7ADFF074B53F83620002AEBD037
:1015C40006F01F0503EBC60359680120A8409047A5
:1015D400E2E7F8BD7803002008B5034680B1B0FA0D
:1015E40080F2C2F11F02D2B2064931F91200064A52
:1015F400D2F880100B43C2F8803002F02CFF08BDF3
:10160400FF22F1E71400002000200244034AD2F82C
:10161400803023EA0003C2F880307047002002447F
:10162400032926D8DFE801F0020C151E114B1A68B5
:1016340022EA00021A605A6822EA00025A607047DD
:101644000C4B1A6802431A605A6822EA00025A6074
:101654007047084B5A6802435A601A6822EA00022B
:101664001A607047034B1A6802431A605A681043A1
:10167400586070470020024410B498B1B0FA80F367
:10168400C3F11F03DBB29C460D4850F83300884277
:101694000AD088B90A4B43F83C1003EBCC035A60D8
:1016A40010BC7047FF23EEE7054C04EBC3035B68F3
:1016B4009342EED10020F3E76FF00F00F0E700BF94
:1016C4007803002060B1B0FA80F3C3F11F03DBB2EA
:1016D400044A002142F8331002EBC3025160704700
:1016E400FF23F5E778030020C30403F4C013C0F319
:1016F40081001830044A52F820001B0C0F229A4033
:101704001040D840704700BF002002440C4A1368C0
:1017140023F00403136000E033B1094B5B6813F05A
:101724000103F9D00123F7E703F1804303F54133C3
:101734000222DA601A6842F001021A60704700BFA0
:10174400000403400138012801D9002070470148F2
:10175400704700BF00127A0008B5084BDB6903F03C
:101764001803102B05D0182B05D10120FFF7EAFF31
:1017740008BD0348FCE70020FAE700BF000C024460
:1017840000127A00F0B583B00C461546644B1E680F
:101794000221304603F083F807460121304603F066
:1017A4007EF82388C3F30B021346132A17D812B208
:1017B4007AB1013B122B00F2AB80DFE803F04C530B
:1017C4005750A9A95B3146484AA2A45E6975808B2B
:1017D40097006FF0850030E06FF085002DE0942ACB
:1017E40011D9A82A00F297809C2A2BD39C3B0C2B5E
:1017F40000F28B80DFE803F02989898929898989A6
:101804002B8989892D00882A19D303F67873C3F3A9
:101814000B0341F2110222FA03F313F0010FDBD0A0
:101824002E602368B3F5805F78D32A68C3F313333B
:101834000133B2FBF3F22A60002003B0F0BD6FF075
:101844008500FAE76FF08500F7E72F60E9E7286085
:10185400E7E72F60E5E703F037F82860E1E7314B6D
:101864002B60DEE74FF400432B60DAE74FF4FA43D2
:101874002B60D6E72C4B2B60D3E70120FFF762FFE8
:10188400022100910023782203F00CF82860C8E7B5
:101894000120FFF757FF042300930023782202213D
:1018A40003F000F82860BCE70120FFF74BFF02219A
:1018B40000910023782202F0F5FF2860B1E70220AE
:1018C400FFF740FF022100910023782202F0EAFF93
:1018D4002860A6E70220FFF735FF032300930023C7
:1018E4007822022102F0DEFF28609AE70220FFF747
:1018F40029FF022100910023782202F0D3FF2860FF
:101904008FE72E608DE72E608BE76FF0850094E7FC
:101914006FF0850091E76FF085008EE700208CE77B
:101924004C00002000127A00006CDC0238B504463A
:101934000D461046FFF706FFB0FBF4F0A0F5742344
:10194400A3F51073134A934202D80020286038BDCF
:10195400A0F5F413A3F281430F4A934203D8012361
:101964002B600020F3E7A0F57413A3F601130B4AD0
:10197400934203D802232B600020E8E7084B03447A
:10198400084A934203D203232B600020DFE76FF061
:101994002100DCE740420F007F841E00FF083D0069
:1019A400FFED85FF00127A00164B984205D8164ABF
:1019B400136923F0300313611CE0144B984207D8D9
:1019C400114A136923F0300343F01003136111E04B
:1019D4000F4B984207D80C4A136923F0300343F0A5
:1019E4002003136106E0084A136943F030031361CE
:1019F40000E033B9044B5B6913F00803F9D0012309
:101A0400F7E7704700E1F5050008024480D1F008CB
:101A140000C2EB0B114B1B6813F0020F0ED10F4ADF
:101A2400136843F00103136001E0012B06D00B4B54
:101A34001B6813F00203F8D00123F6E7074AD369C1
:101A440023F00303D361054BDB6913F0180FFAD1BC
:101A5400024A136A23F00F0313627047000C024416
:101A640030B583B0654BDB6903F01803182B54D0F1
:101A7400624B1A6822F080721A609A6A42F003027A
:101A84009A62012201A90220FFF750FF0028C0F248
:101A9400B380019C204602F05EFF584B9A6A22F400
:101AA4007C5242F400729A629A6A22F00C0242EA70
:101AB40084029A629A6A22F0200242EA40129A62EE
:101AC4005A6B6FF3080242F077025A639A6A22F063
:101AD40010029A625A6B22F47E4242F400725A63F4
:101AE4009A6A42F480329A625A6B22F4FE0242F4F9
:101AF40040325A639A6A42F400329A625A6B22F074
:101B0400FE4242F080725A639A6A42F480229A62D8
:101B14001A6842F080721A6004E0FFF77BFFA7E7BF
:101B2400012C06D0354B1C6814F00074F8D0012445
:101B3400F6E7324B1A6822F080621A60DA6A42F0E1
:101B44000302DA62022201A91046FFF7EFFE002821
:101B540052DB019D284602F0FEFE284BDA6A22F48D
:101B64007C5242F40072DA62DA6A22F00C0242EA2F
:101B74008502DA62DA6A22F0200242EA4012DA626C
:101B8400DA6B6FF3080242F07702DA63DA6A22F062
:101B94001002DA62DA6B22F47E4242F40072DA63F3
:101BA400DA6A42F48032DA62DA6B22F4FE0242F438
:101BB4000032DA63DA6A42F40032DA62DA6B22F073
:101BC400FE4242F08072DA63DA6A42F48022DA6218
:101BD4001A6842F080621A6001E0012B06D0074BBC
:101BE4001B6813F00063F8D02346F6E7034A136B2F
:101BF40023F003031363002003B030BD000C024440
:101C040038B5294B1A6842F480221A601A6842F4E3
:101C140080321A6001E0012D06D0234B1D6815F4B3
:101C24000035F8D00125F6E7FEF792FD1E4AD2F8FA
:101C3400F03023F0180343F01003C2F8F030D2F868
:101C4400F03043F00103C2F8F03000E03CB9164B29
:101C5400D3F8F04014F00204F8D02C46F6E7FEF76F
:101C64009BFD114AD2F8F03043F08063C2F8F030A3
:101C740001E0012B07D00C4BD3F8F03013F00063D4
:101C8400F7D02346F5E708490A6842F480520A600F
:101C940001E0012A06D0044A126812F40052F8D076
:101CA4001A46F6E738BD00BF000C024438B5FFF70A
:101CB40053FD244B1B6A03F00F03234AD35C20FA21
:101CC40003F4224D2846FFF76FFEAC4231D3FFF7F1
:101CD40097FFFFF7C5FE00282ADB1A4B1A6A22F089
:101CE4000F021A621A6A22F0700242F040021A626B
:101CF4001A6A22F4E0621A621A6A22F4E04242F496
:101D040080421A62DA6942F00302DA610D4BDB6940
:101D140003F01803182BF9D10C4B9C420DD2094A3D
:101D2400D36923F40043D361094B084A1A600020A5
:101D340038BD284600F0C0FCC9E7184600F0BCFCDA
:101D4400EDE700BF000C02449C630008001C4E0E2B
:101D54004C00002010B504460A2806D0E1B206481B
:101D640083685B689847204610BD034883685B68B6
:101D74000D219847F2E700BF9056000810B5044CB7
:101D84002046FFF763FB2046FEF75CFC10BD00BF56
:101D9400591D000808B5054803F022FA18B1FFF7E9
:101DA400EDFF002008BD6FF01200FBE7905600081D
:101DB4002DE9F84380460F4616461C46D0F8049099
:101DC400D9F8080002F05BFDB6F5001F0ED00546F9
:101DD400B6F5800F2AD0B4F1806F0ED0B4F1C06F85
:101DE4000DD0B4F1007F24D1022609E03946D9F898
:101DF400080002F00DFF002415E0012600E0032690
:101E040042460F492846FFF737FC0446A0B9D9F8E3
:101E14000810384602F038FD31462846FFF700FC2A
:101E24002846FFF7D9FB2046BDE8F8836FF0850408
:101E3400F9E76FF01504F6E76FF00F04F3E700BF5E
:101E4400394B0008EBB170B504461E46002592B22A
:101E54000C4B33F812202B4608462946FEF766FA47
:101E64000346090241EA13611B02720898183246BC
:101E74002B4641F10001FEF759FAC0F31300E0606C
:101E840070BD70477C630008012918D002290BD06B
:101E9400B9B90368114A934216D002F180529342B1
:101EA40014D04FF48050704703680C4A93420FD00B
:101EB40002F1805293420ED04FF4405070470020FC
:101EC40070474FF40050704700207047002070475F
:101ED4004FF4005070474FF4005070470024004402
:101EE40008B5024A03F00EF808BD00BF694F0008A8
:101EF40008B5024A03F019F808BD00BF6F4F000887
:101F040038B51C460025094B33F812202B46FEF742
:101F14000DFA090241EA106100026308181822460A
:101F24002B4641F10001FEF701FA38BD7C6300083D
:101F340070B582B043681E68002945D00D465868C4
:101F440019698368DB68CBB101AA9847002839DB9B
:101F5400224B9E4215D003F180539E4222D0336817
:101F640023F400433360019B03EB5503B3FBF5F308
:101F74000F2B2FD99BB2F360002023E06FF05700A2
:101F840020E000240F2C0FD82B4622460198002174
:101F9400FFF7B6FFA0F54070114A904204D901340E
:101FA400E4B2EFE70024EDE7102C10D0F36A23F03D
:101FB4000F032343F3622B46224601993046FFF771
:101FC40041FF002002B070BD6FF01500FAE76FF01A
:101FD4001500F7E76FF01500F4E700BF0024004494
:101FE400FFFC0F002DE9F84F06460C4640680568D3
:101FF4003369D3F800A00F79012F04D0022F15D133
:102004004FF4806B01E04FF4C06B94F8059049469F
:10201400FFF73AFF034694F80680B8F1020F08D0A0
:10202400B8F1040F0BD00FBB00200AE04FF0000BF7
:10203400EBE70FB1002004E04FF0805001E04FF4D3
:102044008050FA1ED2B2012A40F2F7801FB1B8F1D3
:10205400040F00F0F580B3F5805F0AD0B3F5405F5C
:1020640009D0002B40F08A80012305E04FF4805012
:10207400E7E7002300E00223994540F0E480594655
:1020840002F0DEFE804540F0E180E379002B60D071
:10209400012B75D0032B40F0DC80724B9D4258D04D
:1020A40003F180539D4254D06F4B9D4251D003F1B4
:1020B40080539D424DD06D4B9D424AD003F18053D5
:1020C4009D4246D06A4B9D4243D003F180539D42CA
:1020D4003FD0684B9D423CD0B5F1502F39D003F529
:1020E400A0539D4235D003F180539D4231D0624BC1
:1020F4009D422ED003F180539D422AD05F4B9D42D6
:1021040027D003F180539D4223D05D4B9D4220D0C4
:1021140003F180539D421CD05A4B9D4219D003F1C8
:1021240080539D4215D0584B9D4212D003F18053E9
:102134009D420ED0554B9D420BD003F180539D42DE
:1021440007D0534B9D4204D003F180539D4240F08D
:1021540083802B6823F001032B602146304602F074
:102164005EFF00287BDB2B6843F001032B6094E8BF
:1021740003008AE803000020BDE8F88F03237BE70F
:10218400384A9542E5D002F180529542E1D0364A70
:102194009542DED002F180529542DAD0334A95421C
:1021A400D7D002F180529542D3D0314A9542D0D053
:1021B40002F180529542CCD02E4A9542C9D0B5F155
:1021C400502FC6D002F5A0529542C2D002F18052DF
:1021D4009542BED0284A9542BBD002F18052954226
:1021E400B7D0264A9542B4D002F180529542B0D07D
:1021F400234A9542ADD002F180529542A9D0214A9A
:102204009542A6D002F180529542A2D01E4A954230
:102214009FD002F1805295429BD01C4A954298D09F
:1022240002F18052954294D0194A954291D002F11C
:10223400805295427FF42EAF8BE76FF085009BE7C9
:102244006FF0850098E76FF0850095E76FF08500E3
:1022540092E76FF085008FE76FF085008CE76FF0F1
:10226400850089E7003801400044004000480040F0
:10227400004C00400050004000780040007C0040CA
:102284000080004000680040006C00400084004072
:1022940000240044F8B5064645682C6803691F68A5
:1022A400236823F001032360A86802F099FF002843
:1022B40000F0BF80E968A86802F0ABFD54E8003F75
:1022C40043F00C0344E80032002AF7D13946304683
:1022D40002F0A5FE0028C0F2AF802B7E1BB1A368DC
:1022E40043F00803A3606B7E1BB1636843F40043AF
:1022F4006360AB7E1BB1636843F480336360EB7E41
:102304001BB1636843F4003363602B7F002B74D0EC
:102314004C4B9C4257D003F180539C4253D04A4BC0
:102324009C4250D003F180539C424CD0474B9C427A
:1023340049D003F180539C4245D0454B9C4242D046
:1023440003F180539C423ED0424B9C423BD0B4F1BB
:10235400502F38D003F5A0539C4234D003F180535E
:102364009C4230D03C4B9C422DD003F180539C4284
:1023740029D03A4B9C4226D003F180539C4222D070
:10238400374B9C421FD003F180539C421BD0354BEA
:102394009C4218D003F180539C4214D0324B9C428F
:1023A40011D003F180539C420DD0304B9C420AD093
:1023B40003F180539C4206D02D4B9C4203D003F181
:1023C40080539C423BD173681A68936843F48043FA
:1023D40093606A7F236823F0787343EA425323604F
:1023E400AA7F236823F4F81343EA02432360EB7FB4
:1023F4001BB1A36843F40043A36095F820301BB1DC
:10240400236843F000532360236843F001032360EF
:1024140000E033B9E36913F40013FAD00123F8E7B9
:102424002AB9E26912F48002FAD01A46F8E70020C9
:10243400F8BD6FF01200FBE76FF01500F8E76FF0DE
:102444001500F5E700380140004400400048004012
:10245400004C00400050004000780040007C0040E8
:102464000080004000680040006C00400084004090
:10247400002400444FF0E023996918699A6909B966
:102484000C4B19680AB90B4B1A6810F4803F01D140
:10249400914208D208490B680648006803440B605F
:1024A4004FF0E0231B69034B1B689B1A024A106818
:1024B40018447047FC030020F8030020094B102245
:1024C40083F82320084B45F6C0521A600020074BBE
:1024D40018604FF0E02345F6BF525A619861072215
:1024E4001A61704700ED00E0FC030020F8030020AF
:1024F400684620F007018D4619B5FFF7BBFF124867
:102504000368124A516814681B1941F100011360F1
:102514005160002202600E490A68981A0D4BA3FB11
:102524000030400A45F6C05300FB03F3D2184B6851
:1025340043F100030A604B6000F080FFFEF730FDBA
:10254400BDE8194085467047F8030020800000204C
:1025540078000020F1197605F8B500294BD0B0F1C8
:10256400FF3F3DD03E4B1C6801284CDD40F2BB23AD
:102574009842A8BF1846461EEFF31185102383F333
:102584001288BFF36F8FFFF775FF4FF0E0239F6949
:10259400344A13685168C31841F100011360516053
:1025A4000021314A1160314A11685A1A2DD445F676
:1025B400C05000FB062202F5BB423F322C4EA6FB64
:1025C4000262520AC91A00FB021140F2DC538B4228
:1025D40038BF0B46274A914235D9214B1A6018E07F
:1025E4004FF0E022136923F0010313611C4B4FF0F9
:1025F4007F421A6026E01A4B1C68B0F1FF3FB3D14A
:1026040040F2BA20B2E70026B6E7154B40F2DC529E
:102614001A604FF0E0239969114A1268013A5A612D
:1026240000229A618F4211D2641A3C440D4A136805
:1026340051681B1941F100011360516085F3118841
:10264400BFF36F8FF8BD064A1360E2E77F1A054AAD
:1026540013685168DB1941F1000113605160EDE723
:10266400FC03002080000020F803002078000020F4
:10267400F1197605809DFF0038B5EFF3118510231D
:1026840083F31288BFF36F8F084B1C68084B1B68D9
:10269400E41AFFF7EFFE204485F31188BFF36F8F30
:1026A400044BA3FB0030400A38BD00BF800000206B
:1026B40078000020F1197605002800F09B804F4B2C
:1026C4001B6903F03003302B1CD04C4B1B6903F007
:1026D4003003202B2AD0494B1B6903F03003102B05
:1026E40038D0474B98427BD9464B98427AD9464BCF
:1026F400984279D9454B984278D9454B98427BD832
:10270400042139E0434B984235D9434B984247D989
:10271400424B984246D9424B984245D9414B984244
:1027240044D9414B984243D9012070473F4B9842CA
:1027340040D93F4B98423FD93E4B98423ED93E4BFD
:1027440098423DD93D4B98423CD93D4B98423BD9A8
:10275400012070473B4B984238D92B4B984237D9CC
:10276400394B984236D9394B984235D9384B98422F
:1027740034D9012070470021364A136823F00F032F
:102784000B4313600222334B1B6803F00F03013A1F
:10279400994201D0002AF6D1994229D001207047EC
:1027A4000121E9E70221E7E70321E5E70421E3E763
:1027B4000521E1E70021DFE70121DDE70221DBE775
:1027C4000321D9E70421D7E70521D5E70021D3E781
:1027D4000121D1E70221CFE70321CDE70421CBE793
:1027E4000021C9E70121C7E70221C5E70321C3E7A7
:1027F4000020704701207047012070470008024400
:10280400002D3101005A62020087930300B4C4040E
:1028140000E1F50580DE800200BD0105809B820792
:10282400007A030A8058840C80B2E60E80CC06023B
:1028340000990D048065140600321B0880FE210AED
:1028440000C2EB0B80C3C901804A5D05000E270757
:1028540080D1F0080020024038B5EFF31185102331
:1028640083F31288BFF36F8F054B9C6802F0D0FC92
:1028740085F31188BFF36F8F2046FEF7A1FB38BDA7
:102884000004002010B586B0B023104C03FB0044B4
:1028940000EB800C0E4B03EB8C030E4A05920122D5
:1028A40004920F22039200220292019200930A4B97
:1028B4004FF4A072094901EB8C11204600F022F973
:1028C400237C23F00403237406B010BD8800002089
:1028D40000040020F86000081B520008380C002097
:1028E40038B505460B4B53F8204002E0236898475F
:1028F40008346B1C074A52F82330A34209D9606894
:102904000028F3D0037E13F0010FF1D102F04FFC45
:10291400EEE738BDAC63000808B553EA020102D102
:1029240000F046FB08BD0249183000F0EDFCF9E761
:102934008953000810B586B0184C14E0636A0593F7
:10294400236A0493E3690393A3690293636901937C
:1029540023690093E368A2686168206800F0D2F8F4
:1029640023685C6530340E4B9C42E7D300F0CEFA0A
:102974000A4C03E02068FFF7CFFF3034084B9C4239
:1029840008D2A26AE36AB3F1FF3F08BFB2F1FF3F86
:10299400F3D0EFE700F0D2FA06B010BDB45A000845
:1029A400B45A000808B50A4B01221A700320FFF735
:1029B40097FF00F0A5FD0420FFF792FFFFF7BAFF91
:1029C400FDF72CFE034A938923F00103938108BD8C
:1029D400350400203801002008B50146014A0248A8
:1029E400FEF7B6FAA92900083801002010B50446FC
:1029F400FFF748FFB0230A4903FB0411094A04EB1B
:102A0400840302EB8303D9601C74074B03EBC423D8
:102A140003F5006304EB840402EB8402536010BDED
:102A240088000020000400203804002070B586B01F
:102A340000F0B6FA104D114B5D61114B0593012363
:102A44000493002403940294019400940D4B4FF4D6
:102A540080620D49284600F055F806462B7C23F089
:102A640004032B74284602F058FC2046FFF7BEFFEF
:102A7400304606B070BD00BF3801002000040020BD
:102A840000610008A9290008780D002008B500207D
:102A9400FFF726FF184B03F5006282F3088883F3DF
:102AA4000A88164CF02384F822300023E377237637
:102AB4006376A37684F82030636A43F4E023636288
:102AC400FEF78CF9FEF766FA4FF0FF33A362E36278
:102AD400FEF774FCFEF7F2FA094800F075F8FDF70A
:102AE40087FE0120FFF7FCFE0220FFF7F9FEFFF747
:102AF4009DFFFFF771FF00BF3804002000ED00E0E8
:102B0400E80100202DE9F04F85B004460F46154634
:102B14001E46DDF838A0DDF83C90DDF84080DDF895
:102B24004CB000F158038365C365129B04221199CC
:102B340002F093FB2A463946204602F079FB05460B
:102B4400CDF80880CDF80490CDF800A033460246B5
:102B540039462046FEF7DAF9002363652666C4F891
:102B640064A0C4F86890C4F86C80EFF31182102359
:102B740083F31288BFF36F8F124B196A21671C62AB
:102B840082F31188BFF36F8FBBF1000F13D01F22A4
:102B9400594604F1740000F013FD002384F89330C7
:102BA400084B9B685BB1D3F8A030C4F8A03028462A
:102BB40005B0BDE8F08F002384F87430F0E7C4F862
:102BC400A030F4E700040020012303748381002370
:102BD400C0F89430C0F89830C0F8A030014B986029
:102BE400704700BF000400200A4A9368C3F8A80095
:102BF4006FF00A01C3F8AC1007494B6843F08053E7
:102C04004B60002383F31188BFF36F8F9368D3F86D
:102C1400AC0070470004002000ED00E0084681B9D4
:102C240008B5EFF305833BB9084B5A699B689A4290
:102C340002D0FFF7D9FF03E080F31188BFF36F8F51
:102C440008BD81F31188BFF36F8F70470004002023
:102C5400037C90F91020002A4EDB13F01F0F4BD198
:102C640010B563F07F030374244A52F8183F93426B
:102C74003AD07BB190F90E1093F90E20914202D014
:102C8400521A002A27DC19461C4AD269934201D001
:102C94001B6833BB194BDA6903F118010160426008
:102CA4001060D861154B53F8184F9C421ED0ECB1FC
:102CB400124B9B681A7C12F01F0F04D1DA897F2A09
:102CC40001D9A269AAB1A34202D0204600F082FA37
:102CD4000A4B5C6110BD5A68426003601060586022
:102CE400E0E70029C5D1D5E70023C2E7034BDC6840
:102CF400DEE7024A5361EDE7704700BF000400209D
:102D040010B5037C90F91020002A19DB154B9A6842
:102D140053F8184F9C421ED0ECB1824208D0137C69
:102D240013F01F0F04D1D3897F2B01D9A369ABB151
:102D3400A24202D0204600F04DFA0A4B5C6110BD5D
:102D440003F07F0303744268036813605A6000232E
:102D540003604360DAE7034BDC68DEE7014B5A614A
:102D6400EDE700BF000400202DE9F84305460C46BA
:102D7400424B9E68337C13F0600F2BD013F0200F6E
:102D84002DD008271F4225D13B43337413F0800F05
:102D940027D1082F30D04FF00009384B53F8188F43
:102DA40098454FD0B8F1000F4CD0344B9B68434545
:102DB40002D0404600F00EFA304BC3F81480102FB6
:102DC40008D0304601F05DFB304600F05DFAB9F101
:102DD400000F3BD184F31188BFF36F8F47E01027B6
:102DE400D0E703F07F0333747268336813605A606A
:102DF400002333607360CCE7B3685BB172683368F7
:102E040013605A60002333607360327C22F0020244
:102E14003274B36006F1180002F001FB06F15800A9
:102E240002F058FA154B9B689E4202D04FF00009FD
:102E3400B3E7EFF3058313B94FF00009ADE74FF0A3
:102E44000109AAE70D4BD3F80C80AEE70C48FFF755
:102E5400BBFEBFE7EFF31184102383F31288BFF3A3
:102E64006F8F02F0E3F984F31188BFF36F8F2B7C2B
:102E740013F0600FEED1BDE8F88300BF000400201A
:102E8400E801002010B5204B9A68DB699A4205D00E
:102E94001368516812680A60516006E00023F8E77D
:102EA400194AD269934212D01B6883B1164A9068BA
:102EB40090F90E1093F90E209142F1D0521A002A83
:102EC400EEDD5A68426003601060586008E00E4B03
:102ED4009A68D96903F11800106051600A60DA61D8
:102EE400094B53F8184F9C420AD04CB1064B9B68CF
:102EF4009C4202D0204600F06DF9034B5C6110BD8A
:102F0400014BDC68F2E700BF000400200023EFF36C
:102F14001181102282F31288BFF36F8F09E0064BF0
:102F24009A68D37B013BD37381F31188BFF36F8F0E
:102F34000123002BF3D070470004002038B5EFF3D1
:102F44001185102383F31288BFF36F8F124B9A6895
:102F5400D17B0131D17353F8184F9C4215D0A4B1E1
:102F6400137C13F01F0F04D1D3897F2B01D9A369DC
:102F740073B1944202D0204600F02CF9064B5C61F8
:102F840029460648FFF74AFE38BD034BDC68E7E7ED
:102F9400014B5A61F4E700BF000400202404002020
:102FA40008B5024802F005FA08BD00BF1404002069
:102FB40038B5EFF31185102383F31288BFF36F8FB5
:102FC400037C13F0040F04D185F31188BFF36F8FD2
:102FD40038BD0446183002F022FA237C23F004039F
:102FE40023742046FFF734FE29460248FFF716FEF5
:102FF400EEE700BF24040020014B9868704700BF2F
:10300400000400202DE9F843838903F00107EFF35E
:103014001186102383F31288BFF36F8F057C15F09C
:10302400080F1AD10446B14600F1580802F020F9FD
:1030340010B345F020052574EFF305839BB13146A9
:103044002046FFF791FE67B1002383F31188BFF395
:103054006F8F0423184602DF03E086F31188BFF361
:103064006F8FBDE8F88341463F4B986802F002F940
:103074003046FFF7B9FDE6E745F00803237413F083
:10308400800F36D1A3685BB16268236813605A600D
:10309400002323606360227C22F002022274A36076
:1030A40004F1180002F0BBF9404602F013F92E4B6C
:1030B4009A6894422AD000262B4B53F8185F9D42FD
:1030C4002BD055B3AA4202D0284600F083F8264BF1
:1030D4005D61204601F0D5F9204600F0D5F8FEB92F
:1030E400214B9B689C421FD089F31188BFF36F8FDB
:1030F400A9E705F07F0545F0080525746268236893
:1031040013605A60002323606360BBE7EFF3058319
:103114000BB90026D0E70126CEE7134BDD68D1E7D3
:103124001248FFF751FDDBE7EFF30583002BDBD1FA
:10313400A38913F0010F12D089F31188BFF36F8FA5
:10314400002383F31188BFF36F8F0423184602DF33
:10315400EFF31189102383F31288BFF36F8F48466E
:10316400FFF742FD6FE700BF00040020E8010020E4
:103174000346027C12F01F0F10D10B4A90420FD06D
:103184000A4A106878B1DA897F2A0BD893F90E209D
:10319400074B1B689A4206DA0020704700207047EC
:1031A4000020704700207047880000205000002055
:1031B4002C040020044BC01AC010044B03FB00F085
:1031C400034B01221A54704798020020ABAAAAAA02
:1031D4002804002070B50C4B1E7CFFF7C9FF044681
:1031E40006EB4603094D05EBC305284602F017F923
:1031F400074B00229A5504B970BD621ED3170549C6
:10320400284600F081F8F7E7000400209802002027
:1032140028040020B931000838B5EFF311851023D4
:1032240083F31288BFF36F8F144B9C68144B1B6895
:10323400A34217D0124B00221A60104B1B7C114A78
:10324400D35C53B12046FFF793FF30B1237C13F0D6
:103254001F0F0FD02046FFF7BDFF85F31188BFF382
:103264006F8F38BD2046FFF7B5FF85F31188BFF394
:103274006F8FF6E7FFF706FEECE700BF00040020BF
:103284002404002028040020EFF31181102383F389
:103294001288BFF36F8F0A4B1B6A834204D11A6FE3
:1032A400074B1A6207E0134613B11A6F8242FAD130
:1032B4000BB1026F1A6781F31188BFF36F8F7047E8
:1032C40000040020034B1868984200D07047002087
:1032D400FCE700BF5400002030B1044A5268904219
:1032E40001D0006870470020704700BF54000020E0
:1032F40008B5044B1B680BB1002008BDFFF7BCF9EF
:10330400FBE700BF300400202DE9F04F83B0B3F198
:10331400FF3F08BFB2F1FF3F0ED0044691461F465F
:1033240081600023EFF3118A102282F31288BFF325
:103334006F8F1D46019335E00025019528460199BC
:1033440003B0BDE8F08FFFF7D3FF8046013547F1A6
:103354000006451946EBE07625616661344A136838
:103364005268ED1846EB020301934FF0010B38E06D
:10337400C91A66EB0202016142614368636020601E
:103384001C60446005E02B4B5A6823606260146043
:103394005C60FFF797FF844237D08AF31188BFF34C
:1033A4006F8F0123002BC9D14D460197002FCADA34
:1033B4001F4B19685B68691843EB07036FF0010240
:1033C400521A4FF0FF3161EB030310461946012AEC
:1033D40073F1000301DA01200021206161614FF0E3
:1033E400000BFFF76FFF0028CDD001694669236900
:1033F40062698B4272EB060EBADB5B1A62EB060261
:1034040023616261FFF768FFEDE70B4B1B68002B3C
:10341400C3D1BBF1000F06D0404601F0E5FF002107
:10342400FFF79AF8B9E7FFF763FF8046F4E700BFB8
:10343400B0020020540000203004002070B5EFF3E7
:103444001186102383F31288BFF36F8F2A4B186001
:10345400FFF738FF044623E0284A136851685B19D4
:1034640041EBE5711360516000220023C4E9042399
:10347400204601F0A2FF86F31188BFF36F8FA36883
:1034840020469847EFF31186102383F31288BFF385
:103494006F8F194A13685B1B1360FFF713FF044611
:1034A4003CB125696169144B1A68D317AA428B4150
:1034B400D2DA44B1236962690F4909685B1A62EB85
:1034C400E172236162610D4A0B4D286813685168EB
:1034D4001B1841EBE0711360516000242C602046FE
:1034E40001F082FF2146FFF737F886F31188BFF316
:1034F4006F8FFFF791FE70BD30040020B0020020F2
:1035040008B5024800F06FFE08BD00BF086100085E
:1035140070B586074FD08418844604E003F8011B75
:103524009D0704D09C4664456346F7D170BD013ABB
:103534000244A2EB0C02032A2FD9CCB20F2A04EBCB
:10354400042404EB044438D9A2F110069C464FF03D
:10355400000E350901350EF1010EAE45CCE90044EB
:10356400CCE902440CF1100CF5D326F00F0610330D
:1035740012F00C0F02F00F0533441AD02A1F1C60FE
:10358400032A05D9A5F108025C60032A88BF9C6060
:1035940005F0030225F003052B44541E002AC5D070
:1035A400C9B21970002CC1D0012C597018BF997080
:1035B40070BD2A46F1E70346BDE71546DEE700BFC6
:1035C40038B540EA010304469B0701D1032A0ED80B
:1035D40020464B1E4AB113F8011F013A00F8011BA3
:1035E4000029F7D10AB1FFF793FF204638BD8C4676
:1035F400DCF8005061460CF1040CA5F1013323EA18
:10360400050313F0803FE4D1043A40F8045B032A35
:10361400EED86146DDE700BF71B1034601EB000C53
:1036240001E0634506D01A46013311780029F8D128
:10363400101A7047181A7047084670470FB400B53F
:1036440083B0064B04AA186852F8041B019200F0D8
:103654008FF803B05DF804EB04B07047946200087F
:1036640030B58E4603F01F01844608296CD0C3F19F
:10367400370310291046DCB24AD04FEA9C024FEAC5
:103684005C0542EA8E7245EACE754FEA5E015FFA46
:103694008CF312EB050C41EB9E014FEA1C1242EA3B
:1036A400017212EB0C0C41EB11114FEA1C2242EA9D
:1036B400016212EB0C0241EB11214FEA124C4CEA6D
:1036C400014C1CEB020C41EB114111EB0C0C41F1D0
:1036D40000014FEADC0C4CEA417C4FEAD10E0CEBC2
:1036E4008C02A3EB4203DBB2A3F10A02092B03F120
:1036F4003001D2B222D91CF1010C04EB02014EF1CB
:10370400000E092A01F130022ED900F8012BB4E78A
:103714000CF00F034FEA1C124FEA1E11092B04EBA5
:10372400030542EA0E728E4688BFEBB294460A4302
:1037340003F1300300F8013BEAD130BD5CEA0E032B
:1037440000F8011B99D130BD10460CF007034FEA75
:10375400DC0C30334CEA4E7C4FEADE0E00F8013BC1
:103764005CEA0E03F1D130BD263300F8013B84E757
:103774002DE9F04F83788BB0D0F804909E0740F188
:1037840030810B4680460C4613F8010B002800F0EC
:10379400D683002600920CE01C4641460136C847F9
:1037A4000028C0F21881234613F8010B002800F00A
:1037B4001A812528F0D165780234252DEDD04FF0FB
:1037C400000BDA465F461F2F5DD97F2F00F28A80F7
:1037D400A5F13003092B11D87D0600F132810AEBE3
:1037E4008A0A14F8015B47F0200703EB4A0AA5F1A3
:1037F4003003002D00F0E180092BF0D92A2D00F0D0
:103804000E812E2D00F06C81A5F14C032E2B00F2BD
:103814002581DFE813F06100230123012301230143
:103824002301230123012301230123012301230174
:103834002301230123012301230123012301230164
:103844002301230123012301230123012301510126
:103854002301610023015D012301230123012301CD
:10386400230123012301CD0023012301230123018B
:103874002301CD0047F0020714F8015B47F0040769
:10388400002D00F09A80A5F12003102BA0D801A2EE
:1038940052F823F07D380008D5370008D5370008E2
:1038A400F3390008D5370008D5370008D5370008A4
:1038B400B5390008D5370008D5370008D5370008D2
:1038C40079380008D5370008133A0008D5370008BE
:1038D400D5370008033A000814F8015B47F4207751
:1038E400002D6AD0A5F14C032E2B00F2B78001A263
:1038F40052F823F0DD380008613A0008613A000804
:10390400613A0008613A0008613A0008613A000827
:10391400613A0008613A0008613A0008613A000817
:10392400613A0008613A0008613A0008613A000807
:10393400613A0008613A0008613A0008613A0008F7
:10394400613A0008613A0008613A0008613A0008E7
:10395400613A0008613A0008613A0008613A0008D7
:10396400613A0008B53A0008613A0008DD380008F9
:10397400613A0008CD3A0008613A0008613A00084B
:10398400613A0008613A0008613A0008613A0008A7
:10399400613A0008993B0008613A0008613A00085E
:1039A400613A0008613A0008613A0008993B00084E
:1039B40014F8015B002D7FF406AF00254146252055
:1039C400C847002807DB28464146C847002806F1B7
:1039D4000206BFF6E8AE98F8023043F0040388F814
:1039E40002304FF0FF3630460BB0BDE8F08F14F8CC
:1039F400015B47F01007002D7FF445AFDDE714F8B5
:103A0400015B47F00107002D7FF43DAFD5E714F8C3
:103A1400015B47F00807002D7FF435AFCDE700992F
:103A2400780651F8042B40F1C18014F8015B002D95
:103A340000F03482A5F1300393460091092B3FF640
:103A4400DDAE0BEB8B0B14F8015B03EB4B0B002D82
:103A5400B3D0A5F13003092BF3D9CFE645F020020A
:103A6400A2F16503612A18BF022B94BF012300232E
:103A7400BBF1000FC0F29480002B3AD1A5F163038F
:103A8400122B00F2BC81DFE813F0FE00A300BA01A0
:103A9400BA01BA01BA01A300BA01BA01BA01BA0162
:103AA400BA01D1015901BA01BA014501BA010801AB
:103AB400F80548BF47F4007714F8015B47F48077B2
:103AC400002D7FF40FAF78E73D0648BF47F4007739
:103AD40014F8015B47F08007002D7FF403AF6CE717
:103AE4007B0680D414F8015B47F04007002DB0D169
:103AF40063E7009B03F1070B2BF0070B0BF10803A3
:103B04004FF0070B0093B54B3907D44618D4D3456F
:103B140016D24D461F46D14602E0934508D292463E
:103B240041462020A84700280AF1FF32F5DA52E77F
:103B3400CC4601363B46A94666449446A6EB0A06A3
:103B4400019403EB0B074C461D46E246994605E0FB
:103B540015F8010BA0470028FFF63DAFBD424146D2
:103B6400F6D14B46AAEB0B0AA146019CF31A1D445D
:103B74002E46AA444D4605E0A847002806F1010652
:103B8400FFF629AFAAEB060341462020002BF3DC05
:103B9400A94608E614F8015B002D7FF416AE0CE785
:103BA40027F040074FF0000BBFB265E7002AC0F2D0
:103BB400178114F8015B47F02007002D00F06E8197
:103BC400A5F1300392460091092B7FF608AE15E665
:103BD4003A06009B00F11B811A46F90552F8043B92
:103BE400019200F1AE811A46DB1727F01001002B79
:103BF40089B20091C0F28B8152EA030140F0228223
:103C040007F0400302937B0603D5BBF1000F00F0DD
:103C140070810020014604AA0A230392FFF720FDC5
:103C2400039A831A029A002A00F06881009A9B453D
:103C3400594622F00102B8BF194692B20092DDF84B
:103C440000C040F206470CF008001CEA070F0246C9
:103C540000F00E820131002800F06381AAEB010A12
:103C640002934146009B751C13F0020F14BF2B20D6
:103C7400202013F4806F18BF2D20C8470028029B12
:103C840080F29480A7E600994FF0010B04AB51F841
:103C9400042B8DF81020009136E727F010070A2333
:103CA400BFB217F080024ED017F40071009A00F0F2
:103CB4009080073222F00702516852F8080B0192F3
:103CC40007F0400C50EA0102CDF800C048D162462A
:103CD4001AB1BBF1000F00F0138104AA00210020E7
:103CE4000292FFF7BDFC029A0099831A002900F0A2
:103CF400DB8027F017019B4589B2009140F3A28035
:103D0400002D40F0BF80390740F1C681AAEB0B0AB1
:103D140035464EE0009D55F8043B002B00F0B08082
:103D240017F0400F1846019314BF59464FF0FF3166
:103D3400FFF772FC019B83460095E5E647F0100708
:103D440010237825ADE7009951F8040B019117F47D
:103D54008071B5D017F4007166D0C0B21146AFE7D8
:103D640004AA0292FFF77CFC029A0099831A0029A4
:103D74005FD127F00601FF0689B2009140F19880D7
:103D8400009A02F00802002D40F09980591C002A84
:103D940000F0E280AAEB010A302041460093C847B4
:103DA400002806F10105009BFFF615AE9B4540F384
:103DB40052810BEB05064F469946F61A01E0B542CF
:103DC4006ED041463020B847002805F10105F6DAE7
:103DD40001E652F8040B019272E700BF3C6100084F
:103DE40014F8015BC2F1000A47F02807002D55D0F2
:103DF400A5F130030091092B7FF6F1ACFEE4782A9B
:103E04007FF4DCADC5F1780343F0100349E7B8054E
:103E140040F19D80073323F007031A465B6811467F
:103E240051F8082B0191E0E680B249E70823002508
:103E340037E727F007015B4589B20091C0F224817E
:103E4400F9069DD4390740F14381AAEB030AD5183A
:103E5400234693464C462F46994605E017F8010D34
:103E6400A0470028FFF6B7ADBB454146F6D14B4607
:103E74005A46A14635441C46019BAD1A009377E689
:103E84009A4B4DE75A4601F0080081B2002800F031
:103E94008880AAEB0B0A3546934687E700918CE5A8
:103EA4004B4604AAB946D2E727F01607B9B20091E7
:103EB40011F0080167D0AAEB030A354676E7991C8E
:103EC400002A56D0AAEB010A414630200093C84785
:103ED4000028FFF680AD009B002D48D028464146BF
:103EE4000093C847002806F10205009BBFF65EAFA9
:103EF40071E527F01107BBB20093002319469EE633
:103F040017F0080300F08780002304AA9FE75042BB
:103F140041F48062009207F0400263EB4301029295
:103F240079E65FEACC77604645D58A45AAEB01007D
:103F340040F3838003EB000B1046824690E606466E
:103F440051E5BA0572D55AB243F3C0134DE653F89E
:103F5400042B0193D31748E6009AD0076AD551453C
:103F6400AAEB010274DA03EB020BAA46ACE7751C58
:103F74001CE7009AD20775D55145AAEB01005FDB17
:103F840082469B46A0E70098C00767D59A45AAEBEE
:103F940003000EDD03EB000B002966D04FF0000A8E
:103FA40092E70098C7076AD5D345AAEB0B00F1DB6B
:103FB40004AA82464BE78A457FF750AECDE9023426
:103FC40033464C462E4689460D461F4602E052456E
:103FD40008DA154641462020A047002805F10102D1
:103FE400F5DAF8E438462F46354649460646AAEB44
:103FF400020A009AA1460136761A3E44D706DDE944
:1040040002343FF561AF114640F2064211427FF49B
:1040140027AE3546CAE6BAF1000F5BDD27F0170775
:104024009B46BBB2594600935B46C7E71AB243F3BB
:10403400C033DAE55145C1DBACE69B4682460FE668
:104044001021A7E7194607F0400310460293E2E562
:1040540092469B4638E72E4604AAF8E69A450ADDBE
:104064001946ABE75145A9DB2CE735468A469DE660
:104074005A468B4609E7AAEB030A354696E6D3452A
:104084002ADA5946934699E775B927F01702380793
:1040940092B200923FF53AAE594600258A458DDC2E
:1040A400AAEB010A354681E6FA061AD538070BF160
:1040B40002013FF507AF514580DBAAEB010A30202E
:1040C40041460093C8470028009BBFF607AF82E42F
:1040D4001946E3E704AABAE6AAEB0B0A3546934667
:1040E40064E600995A4601F00800CEE634610008FF
:1040F400704710B5131D50F8234074B9C3680124E8
:1041040094402343C360043240F82210CB001A1DAC
:1041140089B281520633C15210BDE2000432835A7F
:104124004FEAC10C0CF1040E20F80E300CF1060C11
:1041340020F80C40DB00063389B2C1528152EBE710
:1041440008B500EBC1035A885208B2FA82F2C2F1F0
:104154001F02FFF7CEFF08BD70B50346043AC81D21
:1041640020F007000A4422F00702121AD50818604A
:1041740085600023C360B5FA85F1C1F1200EC1F159
:1041840024018900CE1DF10805E003F1040C00248C
:1041940040F82C4001337345F7DB1FFA81FE4FEAE8
:1041A4004E04A4B244804FF0000CA0F800C044F0C8
:1041B400010444806B1A26F00704A51C9BB25E0020
:1041C400465320F804E022F00704951C20F805C0AB
:1041D40002440353538843F001035380FFF7B0FFB5
:1041E40070BD002070470FB400B583B004A951F826
:1041F400040B0191FCF72CFA03B05DF804EB04B056
:104204007047704738B505460C460321A04700287F
:1042140006DB01212846A047002800DB002038BD2A
:1042240010F1860FFBD1F4E710B4846891FAA1F37E
:104234009BB1B3FA83F35B004FF0030C0CFA03F366
:1042440024EA030391FAA1F149B1B1FA81F14900D9
:104254008A401343836010BC70472023EBE720217E
:10426400F5E710B4C46891FAA1F39BB1B3FA83F3F0
:104274005B004FF0030C0CFA03F324EA030391FAF6
:10428400A1F149B1B1FA81F149008A401343C360F5
:1042940010BC70472023EBE72021F5E708B5FFF7B2
:1042A400E0FF08BD10B4046A91FAA1F39BB1B3FA1C
:1042B40083F39B004FF00F0C0CFA03F324EA03037F
:1042C40091FAA1F149B1B1FA81F189008A4013430D
:1042D400036210BC70472023EBE72021F5E710B4FC
:1042E400446A090A91FAA1F39BB1B3FA83F39B00E0
:1042F4004FF00F0C0CFA03F324EA030491FAA1F132
:1043040049B1B1FA81F189008A401443446210BC76
:1043140070472023EBE72021F5E710B4046891FAF5
:10432400A1F39BB1B3FA83F35B004FF0030C0CFAD7
:1043340003F324EA030391FAA1F149B1B1FA81F13B
:1043440049008A401343036010BC70472023EBE705
:104354002021F5E72DE9F0470F46164698464368B5
:104364005D6801248C4002F03009C2F38013686850
:104374006FEA040A20EA04008B4018436860C2F321
:10438400C11221462846FFF74FFFC6F341222146BA
:104394002846FFF783FFB9F1200F0ED016F4805F93
:1043A40019D0EB6A2343EB624FEA191221462846DF
:1043B400FFF7B3FF0020BDE8F087072F05D842467A
:1043C40021462846FFF76EFFE8E742462146284685
:1043D400FFF785FFE2E7EB6A0AEA0303EB62E3E730
:1043E40008B5FFF795F808BD08B5FBF729FF08BD28
:1043F40008B501460068FCF759FA08BD08B5FCF792
:104404006DFAFCF7CDFD08BD0020704708B5002308
:104414001370CB1E092B1AD8DFE803F005090D1120
:104424001919191919141146FCF71EFC12E0002180
:10443400FCF7C4FA0EE00021FCF73AFB0AE0FCF7B3
:10444400ADFB07E01146FCF76BFC002002E0FCF733
:1044540071FC002008BD08B500B2FCF70BFD08BDD7
:1044640008B5013100B2FCF713FD08BD08B5002101
:104474000120FCF71BFA08BDD0F8943083F30B88B5
:1044840070476FF08500704761B662B680F311889B
:10449400BFF36F8F704772B6002383F31188BFF3A5
:1044A4006F8FBFF34F8F30BF62B6BFF36F8F70470C
:1044B40040E800F010F4803F01D0C0B270476FF0C4
:1044C4001500704708B50B6823F01F0C0B7A03F036
:1044D4001F0ECA6822F01F025B0942EA430242F03F
:1044E40001024CEA0E01FCF713FE08BD43681F2BC2
:1044F40008D913F01F0F07D1036813F01F0F05D05D
:10450400002070470020704700207047012070474A
:1045140000B585B00A6800924B68B1F808E09DF8D0
:1045240008C06EF3040C8DF808C0B1F80AC09DF8F9
:1045340008106CF347118DF8081022F01F02134481
:10454400013B23F01F0303936946FCF70BFE05B000
:104554005DF804FB70B504460E46FFF7A9FF054657
:104564003444601EFFF7A4FF854201D1284670BD84
:104574006FF01505FAE7F0B587B0054605A8FCF716
:1045840049F90646002442E0B3F1006F00F0A3802D
:10459400B3F1805F3AD15768095827F01F03926836
:1045A4001344013B23F01F03019702919DF80C2053
:1045B400012161F304028DF80C20D2B222F0E00252
:1045C4008DF80C20049317E05768095827F01F034F
:1045D40092681344013B23F01F03019702919DF855
:1045E4000C20012161F304028DF80C20D2B261F396
:1045F40047128DF80C20049301A92878FCF7B2FD2A
:104604000028C0F282802B7801332B700134B4422D
:104614007ED22001059901EB0412D3686FF31303D2
:10462400B3F1807F3DD0AFD8B3F5001F06D0B3F50A
:10463400800F1DD0B3F5801FC6D0E7E7576809582F
:1046440027F01F0392681344013B23F01F030197D3
:1046540002919DF80C20012161F304028DF80C20D5
:10466400D2B2022161F347128DF80C200493C3E700
:104674005768095827F01F0392681344013B23F03D
:104684001F03019702919DF80C20062161F3040297
:104694008DF80C20D2B222F0E0028DF80C200493A5
:1046A400AAE75768095827F01F0392681344013B8F
:1046B40023F01F03019702919DF80C20012161F35F
:1046C40004028DF80C20D2B2032161F347128DF855
:1046D4000C20049390E75768095827F01F03926849
:1046E4001344013B23F01F03019702919DF80C2012
:1046F400012161F304028DF80C20D2B2032161F38D
:1047040047128DF80C20049376E76FF0150000E053
:10471400002007B0F0BD08B5FCF700FE08BD08B5E1
:10472400FCF706FE08BD08B5FCF788FE002008BDAE
:1047340008B5FCF7A9FE08BD08B50B22012100202D
:10474400FCF714FF002211460B20FFF789FE0C2210
:1047540001210846FCF70AFF002211460C20FFF74E
:104764007FFE0D2201210220FCF700FF00221146EA
:104774000D20FFF775FE0E2201210320FCF7F6FE43
:10478400002211460E20FFF76BFE0F2201210420A8
:10479400FCF7ECFE002211460F20FFF761FE102209
:1047A40001210520FCF7E2FE002211461020FFF74C
:1047B40057FE112201210620FCF7D8FE00221146E3
:1047C4001120FFF74DFE122201210720FCF7CEFE37
:1047D400002211461220FFF743FE13220121082074
:1047E400FCF7C4FE002211461320FFF739FE142201
:1047F40001210920FCF7BAFE002211461420FFF71C
:104804002FFE152201210A20FCF7B0FE00221146DA
:104814001520FFF725FE162201210B20FCF7A6FE2A
:10482400002211461620FFF71BFE172201210C203F
:10483400FCF79CFE002211461720FFF711FE1822F8
:1048440001210D20FCF792FE002211461820FFF7EB
:1048540007FE192201210E20FCF788FE00221146D2
:104864001920FFF7FDFD1A2201210F20FCF77EFE1F
:10487400002211461A20FFF7F3FD002008BD01F0C5
:104884001F0101208840704708B503460846D90433
:1048940001F4C01141EA9301FCF752FE08BDB0FBDC
:1048A400F1F07047B0FBF1F0D10C52039B1841F1C9
:1048B4000001A0FB033200FB01225B0B43EAC2436D
:1048C4000098B3FBF0F0704700B583B00120FCF70B
:1048D40039FF0221009100237822FFF7E3FF03B0A0
:1048E4005DF804FB0B88C3F30B0303F67872C2F381
:1048F4000B02202A15D882B003F1884303F5033351
:104904004A68186802431A600B88C3F30B0303F167
:10491400884303F503331B680193019B002002B015
:1049240070476FF0850070470B88C3F30B0303F6E1
:104934007872C2F30B02202A0AD803F1884303F5E4
:10494400033349681A6822EA01021A60002070479A
:104954006FF08500704708B1002070470120704750
:10496400012824D0082824D0092824D00A2824D0B7
:104974000B2824D00C2824D00D2824D0042824D09B
:10498400072824D0022824D0032824D00E2824D099
:104994000F2824D0102824D0112824D0122824D061
:1049A400132801D1002070476FF085007047002064
:1049B4007047002070470020704700207047002097
:1049C4007047002070470020704700207047002087
:1049D4007047002070470020704700207047002077
:1049E400704700207047002070470020704770B562
:1049F4004C68C4F304450888C0F30B00FFF7B0FF0C
:104A0400002815DBA6B2FF2C13D006F1884202F56C
:104A14000332C4F34151013101238B40013BAB40CC
:104A2400240EAC40116821EA03031C4314600020E7
:104A340070BD0020FCE708B50888C0F30B0000F641
:104A44007873C3F30B03202B0BD800F1884000F5D7
:104A5400033002684B68934301D0012008BD022053
:104A6400FCE7FFF77DFF08B10120F7E70220F5E737
:104A74000B4639B11168196041688A4209D0002394
:104A8400136070471368036041688A42F7D143603A
:104A9400F5E74360F3E708B50A460368002101E03F
:104AA40019461B682BB19342FAD1FFF7E1FF0120AD
:104AB40000E0002008BD70B504460D4616460368A4
:104AC40033B1FFF7E8FF70B91EB96FF0150006E0C7
:104AD40032B123682B602560636843B1002070BD48
:104AE4006FF01500FBE7002EF3D10020F7E76560B7
:104AF4000020F4E770B50E461546016821B10C6834
:104B04003CB131B90C4604E00C4602E02346214690
:104B14001C4671B18A682A4002D04B6830469847D7
:104B2400002CF3D02368002BF1D0002CEFD12346C6
:104B3400EDE770BD08B5024608690830FFF7DAFFF3
:104B440008BD10F4003F14D010F0020F04D010F090
:104B5400040F34D0502300E0102310F0100F02D0C3
:104B640043F4007312E010F0200F0FD043F480637D
:104B74000CE010F4803F08D010F0100F14D110F0A6
:104B8400200303D04FF4806300E0302300F4C060BE
:104B9400B0F5806F10D0B0F5C06F08D0B0F5007FCD
:104BA40007D143F0800304E04FF40073EEE743F4CD
:104BB400C0730B600020704743F48073F9E76FF013
:104BC4008500704743685B681B690B600020704771
:104BD40043685B68586942400A4042405A61002079
:104BE400704743685B6899610020704743685B685D
:104BF40099620020704743685B685A695140596163
:104C04000020704708B500690830FFF754FF08BD5D
:104C140038B504460D460846FCF766FDA04200D0B0
:104C240038BD29462046FFF72AFE0446FCF7EEFC71
:104C34002046FCF747FD00212046FCF7F1FCEFE796
:104C44002DE9F04383B005460E461446D0F8108093
:104C540001A91046FFF775FF074668BB14F44039F5
:104C640014D0D8F8043023FA06F212F0010F04D15C
:104C74000122B2401343C8F8043014F4003F05D0B5
:104C840014F4002F1CD114F4802F1FD10023019A97
:104C940031462846FFF75EFBB9F1000F0CD1D8F876
:104CA400043023FA06F212F0010F05D00122B240BB
:104CB40023EA0203C8F80430384603B0BDE8F083A1
:104CC4000121B1402846FFF78CFFDFE70121B14005
:104CD4002846FFF78BFFD9E700B50368136001E0AE
:104CE40008331360136890F804C0D0F800E00EEBAA
:104CF400CC0C634505D293F805C08C45F0D1002057
:104D040001E06FF001005DF804FB2DE9F84F8046E7
:104D14008A46002426461AE005F01F02102A25D0F0
:104D2400112A21D0C5F34420FBF700FD814690B33E
:104D3400C5F3431B05F01F073B4632465946FFF7B0
:104D440009FB002825DB112F12D00134E4B25445AD
:104D54001ED208EBC40358F8345015F0100FDBD101
:104D64005E6846F02006DDE75E68DBE73026D9E7BB
:104D7400D9F804305B6816F4006F04D0012202FAFB
:104D84000BF29A61E1E7012202FA0BF29A62DCE784
:104D94000020BDE8F88F6FF01200FAE74368186846
:104DA400C1F34B1301F01F01C358012000FA01F1B4
:104DB4000B40003B18BF012313700020704710B450
:104DC40043681C68C1F34B1001F01F0123580122F2
:104DD4008A4013432350002010BC704710B443682A
:104DE4001C68C1F34B1001F01F01235801228A40B3
:104DF40023EA02032350002010BC704738B5044650
:104E04000D46FFF7DCFF29462046FFF7E7FF0020A9
:104E140038BD08B58368DB680BB1984708BD6FF0EF
:104E24005700FBE7436829B11A68936843F4804349
:104E3400936070471A68936823F4804393607047C3
:104E4400B0F5805F07D0B0F1805F07D109B10120D0
:104E540070470220704721B90420704719B9032014
:104E64007047032070470220704738B504460D464A
:104E740003691B681B680B6043681B681B6803F4A9
:104E8400C063B3F5806F04D0B3F5C06F11D10123B3
:104E940000E002232B7163681B685B6803F44053D2
:104EA400B3F5805F07D0B3F5405F06D033BB012371
:104EB40004E00023EEE7002300E002236B71636843
:104EC4001B681868196801F4C06100F01020FFF72E
:104ED400B7FFA87163681B689B6803F44073B3F55C
:104EE400407F0DD00023EB7163681B689B6813F44B
:104EF400804F01D00323EB71002038BD0323DDE78D
:104F04000123F0E708B543681868C36913F0080F74
:104F140001D008230362C36913F0200F02D0904725
:104F2400002008BD4FF0FF30FBE710B54368186858
:104F3400C36913F0800FFBD0EFF31184102383F3C4
:104F44001288BFF36F8FC36913F0800F04D184F309
:104F54001188BFF36F8FEBE7904784F31188BFF399
:104F64006F8F10BD436A0B707047C9B2816270477E
:104F740043681B68D86910F0080000D00120DA6982
:104F840012F0010F01D040F00200DA6912F0020FB2
:104F940001D040F00400DA6912F0040F01D040F0AF
:104FA4002000DA6912F4807F03D110F0080F02D1D7
:104FB40004E040F008004FF480721A6210F0010F10
:104FC40001D008221A6210F0020F01D001221A62E5
:104FD40010F0040F01D002221A6210F0200F01D049
:104FE40004221A62704708B54368586819698368CF
:104FF4001B680BB1984708BD6FF05700FBE700B57D
:1050040083B001AAFFF768FE002805DB019B00229C
:1050140019791868FFF779FE03B05DF804FB2DE9F0
:10502400F84304460D46D0F8048003691E6891F8DD
:105034000490B9F1010F05D0B9F1020F12D14FF468
:10504400806701E04FF4C06769794046FCF71CFFB4
:10505400AB79022B08D0042B0ED0B9F1000F61D12B
:1050640000220BE00027EFE7B9F1000F01D0002286
:1050740004E04FF0805201E04FF48052E9790129B5
:1050840053D00023032914BF00210121AE424FD085
:10509400D8F800E0DEF800C00CF4C06C674507D017
:1050A400DEF800C02CF4C06C47EA0C07CEF80070A0
:1050B4006768D7F800C0DCF8047007F44057B842BA
:1050C40006D0DCF8047027F440573843CCF80400C9
:1050D40060680768386800F01020824204D038689D
:1050E40020F0102002433A6062681068826802F47B
:1050F4004072934204D0826822F440721343836066
:1051040063681B689B6813F4804300D0012303F099
:10511400010399422AD12968336899422AD100208F
:10512400BDE8F8834FF48052A8E74FF44073A9E731
:10513400D8F80060316821F0805121F4B0513A432D
:1051440011433160726822F4405202437260626813
:1051540011688A6822F4407213438B6029682046E0
:10516400FCF7E6FE0028DBDB0020D9E72046FFF74A
:1051740059FED0E72046FCF7DBFE0028D0DB2B6885
:1051840033600020CCE738B504464568FFF72BFFB1
:1051940000280BDB0021686AFFF731FF002805DBDC
:1051A4002046FDF777F8002800DB002038BD10B555
:1051B4000446436993B19847024630B100280BDB9B
:1051C400FF2A00DDFF22E3681A70E1684B7843F0A0
:1051D40001034B70504210BD4242F1E70022F4E754
:1051E40060B1C3685A7812F0010F03D01B781BB169
:1051F400002070470020704701207047002070474E
:10520400EFF31183102383F31288BFF36F8FFEE74C
:1052140008B5FFF7F5FF08B5EFF31183102383F307
:105224001288BFF36F8FFFF736F9F5E700BF7047B9
:10523400F8B505460E46D41D24F007040F19394667
:10524400FBF764FB073020F00700C5F89460C5F84D
:105254009840C5F89C00381AF8BD10B40024846046
:10526400838102748173C4738461C46110BC704708
:105274000020704738B504460D46FDF741FD237CF8
:1052840043F00203237425B3A5602B689D4207D124
:10529400002305E019466A68934215D01B687BB960
:1052A40093B194F90E1093F90E209142F2D0521A50
:1052B400002AEFDD5A686260236014605C6008E0D5
:1052C4000029EDD10B46EBE76B68256063601C6039
:1052D4006C6038BD70B50646046884421AD0DCB1EF
:1052E4006268236813605A60002525606560237C2A
:1052F40023F002032374A56004F1180000F08FF872
:10530400C4F8AC502046FDF7A3FC3468A642E6D1AD
:105314000024E4E70024E2E770BD38B50446002326
:10532400EFF31185102282F31288BFF36F8F04E02C
:1053340085F31188BFF36F8F012343B92046FFF72C
:1053440097FF0028F4D12046FDF782FCF0E738BD32
:1053540008B5037C13F0280F13D183685BB142684E
:10536400036813605A60002303604360027C22F0E8
:10537400020202748360037C23F004030374FDF7C8
:1053840067FC08BD38B5A0F118050023EFF31184BC
:10539400102282F31288BFF36F8F07E02846FFF7CD
:1053A400D7FF84F31188BFF36F8F0123002BF5D04F
:1053B40038BD031D43608360704710B50446FDF794
:1053C4008BFF48B102460369416920691B18606973
:1053D40041EB0001136151616268236813605A60F4
:1053E40000232360636010BD10B50446FDF76AFF17
:1053F40078B1036942691B1B62EBE472B3F1004F9D
:1054040072F1000108DA002A01DB184610BD0023FE
:10541400FBE76FF00040F9E76FF00040F6E72DE995
:10542400F04105460024EFF31187102383F312881B
:10543400BFF36F8F6FF015000CE0FDF759FFFFF716
:10544400D3FF0021FDF788F8404687F31188BFF3A6
:105454006F8F0124A0468CB92B68002BF5D0FDF783
:1054640031FF06462846FFF7A8FF00224FF000430D
:10547400C5E90423AE42E0D02046E6E7BDE8F0816A
:08548400E0AEFF7F0100000013
:10548C000000000024550008B906000800000000C8
:10549C000000000040550008000000000456000801
:1054AC00000000002056000800000000B055000865
:1054BC000000000094550008000000005856000839
:1054CC0000000000E8550008000000003C560008F1
:1054DC0000000000CC5500080000000078550008C2
:1054EC00000000005C5500083D470008000000006B
:1054FC0000000000905600080000000074560008E0
:10550C00991D000800000000C124000800000000E4
:08551C00691400080000000002
:10552400B460000800000000E85A00087000002081
:1055340000000000B11C000800000000C460000866
:10554400D8620008D85A0008720000200000000049
:105554000000000000000000945B000844610008A3
:10556400B45A00085C000020B8020020210700089B
:1055740000000000A45B000858610008B45A000849
:105584005E000020C802002021070008000000007F
:10559400B45B00086C610008B45A00086000002085
:1055A400D80200202107000800000000C45B0008A6
:1055B40080610008B45A000862000020E80200205C
:1055C4002107000800000000D45B00089461000873
:1055D400B45A000864000020F802002021070008E3
:1055E40000000000E45B0008A8610008B45A000849
:1055F40066000020080300202107000800000000C6
:10560400F45B0008BC610008B45A0008680000207C
:10561400180300202107000800000000045C0008B3
:10562400D0610008B45A00086A0000202803002052
:105634002107000800000000145C0008E461000871
:10564400B45A00086C000020380300202107000829
:10565400000000009460000800000000000000004A
:105664006E00002000000000354700080000000024
:10567400D8600008DC620008045B000874000020A5
:10568400340000208B51000800000000E86000088E
:105694002C630008045B0008760000204000002012
:0856A4008B510008000000001A
:1056AC000000000071440008000000007144000874
:1056BC000000000071440008000000007144000864
:1056CC000000000071440008000000007144000854
:1056DC000000000071440008000000007144000844
:1056EC000000000071440008000000007144000834
:1056FC000000000071440008D462000895150008F1
:10570C00D062000895150008CC62000895150008B9
:10571C00C862000895150008C462000895150008B9
:10572C00C062000895150008BC62000895150008B9
:10573C00B862000895150008B462000895150008B9
:10574C00B062000895150008AC62000895150008B9
:10575C00A862000895150008A462000895150008B9
:10576C00A0620008951500089C62000895150008B9
:10577C0098620008951500080000000071440008AC
:10578C000000000071440008000000007144000893
:10579C000000000071440008000000007144000883
:1057AC000000000071440008000000007144000873
:1057BC000000000071440008000000007144000863
:1057CC000000000071440008000000007144000853
:1057DC000000000071440008000000007144000843
:1057EC000000000071440008000000007144000833
:1057FC000000000071440008000000007144000823
:10580C000000000071440008000000007144000812
:10581C000000000071440008000000007144000802
:10582C0000000000714400080000000071440008F2
:10583C0000000000714400080000000071440008E2
:10584C0000000000714400080000000071440008D2
:10585C0000000000714400080000000071440008C2
:10586C0000000000714400080000000071440008B2
:10587C0000000000714400080000000071440008A2
:10588C000000000071440008000000007144000892
:10589C000000000071440008000000007144000882
:1058AC000000000071440008000000007144000872
:1058BC000000000071440008000000007144000862
:1058CC000000000071440008000000007144000852
:1058DC000000000071440008000000007144000842
:1058EC000000000071440008000000007144000832
:1058FC000000000071440008000000007144000822
:10590C000000000071440008000000007144000811
:10591C000000000071440008000000007144000801
:10592C0000000000714400080000000071440008F1
:10593C0000000000714400080000000071440008E1
:10594C0000000000714400080000000071440008D1
:10595C0000000000714400080000000071440008C1
:10596C0000000000714400080000000071440008B1
:10597C0000000000714400080000000071440008A1
:10598C000000000071440008000000007144000891
:10599C000000000071440008000000007144000881
:1059AC000000000071440008000000007144000871
:1059BC000000000071440008000000007144000861
:1059CC000000000071440008000000007144000851
:1059DC000000000071440008000000007144000841
:1059EC000000000071440008000000007144000831
:1059FC000000000071440008000000007144000821
:105A0C000000000071440008000000007144000810
:105A1C000000000071440008000000007144000800
:105A2C0000000000714400080000000071440008F0
:105A3C0000000000714400080000000071440008E0
:105A4C0000000000714400080000000071440008D0
:105A5C0000000000714400080000000071440008C0
:105A6C0000000000714400080000000071440008B0
:105A7C0000000000714400080000000071440008A0
:105A8C000000000071440008000000007144000890
:105A9C000000000071440008000000007144000880
:085AAC00000000007144000835
:105AB400454C0008C94B0008D54B0008E74B0008CB
:105AC400F14B0008FB4B0008B51D0008094C000809
